:100000000C9439060C9480060C9480060C9480069F
:100010000C9480060C9480060C9480060C94800648
:100020000C9480060C9480060C94E20D0C948006CF
:100030000C94C51D0C9480060C9480060C948006CC
:100040000C9480060C9480060C9480060C94800618
:100050000C9480060C94651E0C9480060C9480060B
:100060000C9480060C9480060C9480060C948006F8
:100070000C9480060C9480060C9480060C948006E8
:100080000C9480060C9480060C9480060C948006D8
:100090000C9480060C9480060C9480060C948006C8
:1000A0000C9480060C9480060C948006D80EFA0EF0
:1000B000E80FFA0EE80F3F0F620FE80FB70FCA0FF5
:1000C000C112C112F012F0124A1388139115911542
:1000D000A1139115A214A2146515911591157C1503
:1000E000022B0001E2012B0001A902A900012C0250
:1000F0002C012D022D01E10137023702E1012C0212
:100100002C00F1A104A216A3292100C01F141AC2B9
:10011000C11D1B06202115080709190522231C17DC
:100120000A0B11001E292BC3E1E3E22C2425180C35
:100130000E0D100031352A28C0E5E7E626271213F8
:10014000330F36002D2E302F343837003B0101A9F4
:10015000AA0101013C3D0101A80101013E3F01014D
:10016000015557003A0139010101010140410146A1
:100170004A545600494C2A5801010101424347485C
:10018000504B4D00444501524F514E0001010101B9
:10019000010101010101010101010101010101014F
:1001A00001500100010101010101014C01010101A6
:1001B000525101000101012A010101010101010166
:1001C000014F0100010101010101C4000101010110
:1001D000010101010101010101010101010101010F
:1001E00001F2010001010101010101F40101FAF92B
:1001F000F0F1010001010101010101010101010111
:10020000F5F301000101010101010100253032581F
:100210003A20253038620A000A722F6320303132CA
:1002200033343536370A005B735D004B6579626F96
:100230006172642073746172742E0A0055534220F7
:10024000636F6E666967757265642E0A005B575D41
:10025000005B535D005B525D005B445D005B435D92
:10026000001203480048004B00420020006D006F60
:1002700000640000000E0374002E006D002E006B61
:10028000002E0000000403090409028D000501008E
:10029000A03209040000010301010009211101003D
:1002A00001223F000705810308000A09040100013B
:1002B00003010200092111010001224D00070582FE
:1002C0000308000A090402000103000000092111CB
:1002D0000100012236000705830308000A09040310
:1002E0000002030000000921110100012220000783
:1002F000058403200001070504032000010904040C
:10030000000103000000092111010001223900074A
:100310000585031000011201100100000008EDFE28
:10032000FECA04010102000105010906A101050739
:1003300019E029E7150025019508750181020508D6
:100340001901290595057501910295017503910122
:100350000507190029771500250195787501810297
:10036000C00631FF0974A1010975150025FF95200C
:10037000750881020976150025FF95207508910200
:10038000C005010980A101850216010026B7001AE7
:1003900001002AB700751095018100C0050C090104
:1003A000A1018503160100269C021A01002A9C0265
:1003B000751095018100C005010902A1010901A183
:1003C000000509190129051500250195057501810B
:1003D0000295017503810105010930093115812557
:1003E0007F95027508810609381581257F9501756D
:1003F000088106050C0A38021581257F95017508CC
:100400008106C0C005010906A101050719E029E719
:100410001500250195087501810295017508810176
:1004200005081901290595057501910295017503C6
:1004300091010507190029FF150025FF950675088C
:100440008100C00A002530325820006B6579626F48
:100450006172645F7265706F72743A20000A0025E1
:10046000303258006B6579626F6172645F736574D6
:100470005F6C65643A200064656C5F6B65795F62F0
:1004800069743A2063616E27742064656C3A202594
:100490003032580A006164645F6B65795F62697429
:1004A0003A2063616E2774206164643A20253032FB
:1004B000580A004F6E6573686F743A2074696D65F1
:1004C0006F75740A00646F6E652E0A00626F6F6745
:1004D0006D61676963207363616E3A202E2E2E2052
:1004E00000290A002575002F002575005D280025CC
:1004F000640020002564002000256400200025649D
:10050000007C0025303258006D6F7573656B65791E
:10051000205B62746E7C782079207620685D28727A
:1005200065702F61636C293A205B006D6B5F7768A3
:1005300065656C5F74696D655F746F5F6D61782070
:100540003D2025640A006D6B5F776865656C5F6DA3
:1005500061785F7370656564203D2025640A006DD5
:100560006B5F74696D655F746F5F6D6178203D20AE
:1005700025640A006D6B5F6D61785F7370656564FB
:10058000203D2025640A006D6B5F696E746572768C
:10059000616C203D2025640A006D6B5F64656C61B1
:1005A00079203D2025640A006D6B5F776865656C76
:1005B0005F74696D655F746F5F6D6178203D2025A4
:1005C000640A006D6B5F776865656C5F6D61785F6D
:1005D0007370656564203D2025640A006D6B5F744F
:1005E000696D655F746F5F6D6178203D2025640AD9
:1005F000006D6B5F6D61785F7370656564203D2091
:1006000025640A006D6B5F696E74657276616C209B
:100610003D2025640A006D6B5F64656C6179203D47
:100620002025640A000A00257500363A207768659F
:10063000656C5F74696D655F746F5F6D61783A209A
:10064000000A00257500353A20776865656C5F6D96
:1006500061785F73706565643A20000A0025750053
:10066000343A2074696D655F746F5F6D61783A200C
:10067000000A00257500333A206D61785F7370655C
:1006800065643A20000A00257500323A20696E74CC
:10069000657276616C286D73293A20000A00257511
:1006A00000313A2064656C6179282A31306D7329F4
:1006B0003A20000A092D2056616C756573202D0AB9
:1006C000004D3E004D25643E20003F0073657420C0
:1006D00064656661756C740A00433E200077686546
:1006E00072652064656C74613A20637572736F7211
:1006F0003D25642C20776865656C3D25640A53654B
:100700006520687474703A2F2F656E2E77696B6957
:1007100070656469612E6F72672F77696B692F4D01
:100720006F7573655F6B6579730A000A092D204D3B
:100730006F7573656B6579202D0A4553432F713AA8
:1007400009717569740A313A0964656C6179282AFE
:1007500031306D73290A323A09696E7465727661B7
:100760006C286D73290A333A096D61785F7370657F
:1007700065640A343A0974696D655F746F5F6D6111
:10078000780A353A09776865656C5F6D61785F73E3
:10079000706565640A363A09776865656C5F7469E7
:1007A0006D655F746F5F6D61780A0A703A097072E7
:1007B000696E742076616C7565730A643A097365B5
:1007C000742064656661756C74730A75703A092BE0
:1007D000310A646F776E3A092D310A706775703A85
:1007E000092B31300A7067646F776E3A092D31300A
:1007F0000A0A7370656564203D2064656C7461202D
:100800002A206D61785F7370656564202A202872E4
:100810006570656174202F2074696D655F746F5F0A
:100820006D6178290A003F004D3E2000433E2000C4
:100830004C25640A000A092D20436F6E736F6C65A6
:10084000202D0A4553432F713A09717569740A6D59
:100850003A096D6F7573656B65790A000A092D2079
:100860004D61676963202D0A643A096465627567A2
:100870000A783A096465627567206D6174726978F7
:100880000A6B3A096465627567206B6579626F610E
:1008900072640A6D3A096465627567206D6F7573DD
:1008A000650A763A0976657273696F6E0A733A095A
:1008B0007374617475730A633A09636F6E736F6C56
:1008C00065206D6F64650A302D343A096C61796575
:1008D00072302D34284631302D4634290A50617546
:1008E000733A09626F6F746C6F616465720A653A7E
:1008F00009656570726F6D0A6E3A094E4B524F0A68
:10090000000A002575002E6E6B726F3A20000A00F7
:100910002575002E737761705F6261636B736C6124
:1009200073685F6261636B73706163653A20000A8C
:10093000002575002E737761705F67726176655F61
:100940006573633A20000A002575002E6E6F5F679D
:1009500075693A20000A002575002E737761705F73
:1009600072616C745F726775693A20000A002575C0
:10097000002E737761705F6C616C745F6C67756972
:100980003A20000A002575002E636170736C6F6356
:100990006B5F746F5F636F6E74726F6C3A20000AE6
:1009A000002575002E737761705F636F6E74726FD0
:1009B0006C5F636170736C6F636B3A20000A002593
:1009C000303258006B65796D61705F636F6E666978
:1009D000672E7261773A20000A002575002E6D6F30
:1009E0007573653A20000A002575002E6B657962E3
:1009F0006F6172643A20000A002575002E6D6174E3
:100A00007269783A20000A002575002E656E6162D1
:100A10006C653A20000A0025303258006465627522
:100A2000675F636F6E6669672E7261773A20000AAE
:100A30000025750064656661756C745F6C6179652D
:100A4000723A20003F004E4B524F3A206F66660AC2
:100A5000004E4B524F3A206F6E0A0074696D6572FA
:100A60005F636F756E743A202530346C580A006BE2
:100A70006579626F6172645F6E6B726F3A202558A0
:100A80000A006B6579626F6172645F69646C653AD4
:100A90002025580A006B6579626F6172645F70721D
:100AA0006F746F636F6C3A2025580A00686F737417
:100AB0005F6B6579626F6172645F6C65647328292E
:100AC0003A2025580A000A092D2053746174757361
:100AD000202D0A004743433A20342E392E3220413C
:100AE00056522D4C4942433A20312E382E307376DF
:100AF0006E204156525F415243483A20617672352A
:100B00000A004F5054494F4E533A204C554641200D
:100B1000424F4F544D41474943204D4F5553454B4C
:100B200045592045585452414B455920434F4E5347
:100B30004F4C4520434F4D4D414E44204E4B524F5C
:100B4000203531320A004255494C443A2063363050
:100B5000373839332D6469727479202831313A314C
:100B6000373A343820417072202037203230313704
:100B7000290A005649443A203078464545442874AD
:100B80002E6D2E6B2E29205049443A203078434157
:100B900046452848484B42206D6F642920564552EF
:100BA0003A203078303130340A00444553433A20FB
:100BB000742E6D2E6B2E206B6579626F61726420CE
:100BC0006669726D7761726520666F722048484B66
:100BD00042206D6F640A000A092D20566572736900
:100BE0006F6E202D0A000A6D6F7573653A206F666F
:100BF000660A000A6D6F7573653A206F6E0A000A07
:100C00006B6579626F6172643A206F66660A000AEA
:100C10006B6579626F6172643A206F6E0A000A6DCB
:100C200061747269783A206F66660A000A6D6174B1
:100C30007269783A206F6E0A000A64656275673AD5
:100C4000206F6E0A000A64656275673A206F6666F7
:100C50000A000A0A626F6F746C6F616465722E2EEF
:100C60002E2000433E20006565636F6E6669673A1B
:100C70000A0011241FBECFEFDAE0DEBFCDBF04B6FD
:100C800003FE27C08091EA019091EB01A091EC0155
:100C9000B091ED018730904BA740B04BD1F410924A
:100CA000EA011092EB011092EC011092ED0114BEDA
:100CB00084B7877F84BF0FB6F894A89580916000B1
:100CC000886180936000109260000FBEE0E0FFE357
:100CD000099511E0A0E0B1E0ECEAF3E502C005906F
:100CE0000D92A833B107D9F721E0A8E3B1E001C024
:100CF0001D92AA3EB207E1F70E940C0B0C94D42976
:100D00000C940000FF93EF93E0913801F0913901CA
:100D1000309709F00995EF91FF910895FC018591B5
:100D2000803011F0EFDFFBCF0895FF27E0E230E2E3
:100D300047FF0CC0419597FF09C0EDE260957095A3
:100D400080959095611D711D811D911D27FF02C029
:100D5000219530E350E2AA27660F771F881F991F5D
:100D6000AA1FA41710F0A41B63955A95A9F7AA30DF
:100D700008F0A95FA05DAF93F3956115710581053A
:100D8000910541F7ED3211F4EF93F395F21718F452
:100D90003F93F395FBCF8F91B5DFFA95E1F7089577
:100DA000E991F9918591803021F0853219F0AADF1F
:100DB000F9CF089520E0E89455915532C1F35033AE
:100DC00011F4689455915A3348F4505390F3220F1C
:100DD000022E220F220F200D250FF4CF0EF42195A5
:100DE00089919991533619F3533729F1533559F1B4
:100DF000BC0188279927E8945C3621F48991999160
:100E000068945591543639F446EF7EF077FF0DC063
:100E10008FEF9FEF0AC055374AE039F0583540E16F
:100E200021F0523642E009F00895FF93EF937DDF01
:100E3000EF91FF91B7CFFF93EF93FC018191803049
:100E4000B9F360DFFBCFFF93EF9368DFF1CFDF9360
:100E5000CF93CDB7DEB72596A3DFCF91DF9108956D
:100E6000FC01613051F018F0623069F012C08281EB
:100E7000882379F08DEE90E008958281882349F0EF
:100E800088EE90E008958281811106C080EE90E0A6
:100E9000089580E090E0089583EE90E00895E72FB4
:100EA000F0E098E0899FE00DF11D112483E0EE0F42
:100EB000FF1F8A95E1F7E60FF11DE45FFE4F849175
:100EC0000895E82FF0E0EE0FFF1FEE57F0408591F8
:100ED000949108958FEF84B980E485B9819A8098C0
:100EE000889A2E9A8998E2E4F1E088E08E0F1192B8
:100EF0008E13FDCFEAE3F1E088E08E0F11928E139E
:100F0000FDCF82E491E090934D0180934C018AE300
:100F100091E090934B0180934A0108950F931F93A2
:100F2000CF93DF9380914A0190914B0120914C0126
:100F300030914D0130934B0120934A0190934D0124
:100F400080934C01C0E0D0E001E010E080E090E050
:100F500025B1207C2C2BAC0133E0440F551F3A9572
:100F6000E1F7242B25B9EAE1EA95F1F700C0E09119
:100F70004A01F0914B01EC0FFD1F208130E0082E5B
:100F800002C0359527950A94E2F720FD899AF5E38A
:100F9000FA95F1F70000E6B52E982AE12A95F1F7C7
:100FA00000C040914C0150914D01DA01AC0FBD1FC2
:100FB000789B0AC09801082E01C0220F0A94EAF714
:100FC00020953C91232308C06C919801082E01C004
:100FD000220F0A94EAF7262B2C9326B56E2F70E089
:100FE0002E1718F026B530E004C026B530E02150A9
:100FF0003F4F261B370B2630310558F0E0914A0150
:10100000F0914B01EC0FFD1F2081FA01EC0FFD1F49
:1010100020833AE13A95F1F700C089982E9AEBE2E5
:10102000F1E03197F1F700C000000196883091059A
:1010300009F08ECFA0914C01B0914D01AC0FBD1FB6
:10104000E0914A01F0914B01EC0FFD1F9C918081D2
:10105000981751F00E94031E60934E0170934F0148
:1010600080935001909351012196C830D10509F029
:101070006DCF8091E101853021F08091E1018111F6
:1010800011C060914E0170914F018091500190917B
:1010900051010E94391E613177428105910510F09E
:1010A0000E94861D81E0DF91CF911F910F910895DD
:1010B00020914C0130914D01F901E80FF11D808123
:1010C00008950F931F93CF93DF9388E192E00E94DE
:1010D0008E06C0E0D0E00CE012E0E0914C01F0910F
:1010E0004D01EC0FFD1F80810E94701D1F928F9398
:1010F000DF93CF931F930F930E94270721960F90A2
:101100000F900F900F900F900F90C830D10529F7D6
:10111000DF91CF911F910F91089508950895569AE8
:1011200081FF02C05E9A08955E98089580916501DE
:1011300008959FB7F894109254019FBF9091E101D8
:10114000943009F057C09091E9009F703091EC0005
:10115000232F217030FD20E8922B24E02093E9001A
:101160002091EB0020FF43C02091EE0027FF3FC0FD
:1011700020915201222321F02091E80025FF37C061
:101180001092520126E03091E80035FD15C03091F3
:10119000E101343061F53091EB0035FD28C021507C
:1011A00021F481E08093520122C0EFE9FFE0319702
:1011B000F1F700C00000E7CF8093F1008091E800D4
:1011C00085FD0AC08091E80080FFFCCF8091E80097
:1011D0008E778093E80006C08FB7F89421E02093C3
:1011E00054018FBF9F709093E90080E008959F7035
:1011F0009093E9008FEF0895CF93DF9300D01F9273
:10120000CDB7DEB79C018091E101843019F593E000
:1012100099833B832A839093E9008FEF9091E800B4
:10122000815095FD06C095ED9A95F1F7000081116A
:10123000F5CF8091E80085FF0DC040E050E063E00D
:1012400070E0CE0101960E94D00B8091E8008E776D
:101250008093E8000F900F900F90DF91CF91089549
:10126000CF93DF9300D01F92CDB7DEB72091E1017D
:10127000243021F522E029839B838A8383E08093B5
:10128000E9008FEF9091E800815095FD06C095ED43
:101290009A95F1F700008111F5CF8091E80085FF64
:1012A0000DC040E050E063E070E0CE0101960E9486
:1012B000D00B8091E8008E778093E8000F900F901C
:1012C0000F90DF91CF9108952091E1012430F1F446
:1012D00022E02093E9002FEF3091E800215035FD06
:1012E00006C035ED3A95F1F700002111F5CF2091B8
:1012F000E80025FF0BC040E050E065E070E00E9490
:10130000D00B8091E8008E778093E8000895CF930A
:10131000DF932091E101243009F048C0EC01809175
:101320000A018823E1F080910B018823C1F085E058
:101330008093E9008FEF9091E800815095FD06C001
:1013400095E19A95F1F700008111F5CF8091E800C1
:1013500085FF2CC040E050E060E170E017C081E004
:101360008093E9008FEF9091E800815095FD06C0D1
:1013700095ED9A95F1F700008111F5CF8091E80085
:1013800085FF14C040E050E068E070E0CE010E94AC
:10139000D00B8091E8008E778093E80080E1FE0119
:1013A000A5E5B1E001900D928A95E1F7DF91CF912B
:1013B00008958DE592E00E948E068091E0018111F2
:1013C00009C00E94670D0E94C40D8091E2008460F4
:1013D0008093E200089589E592E00E948E061092C3
:1013E000E001089585E592E00C948E0681E592E097
:1013F0000C948E068DE492E00E948E060C94C31D20
:10140000209153012F5F822F62E30E946929992363
:1014100019F02093530108951092530180915401C3
:10142000882371F18091E101843041F58091E900D8
:101430008F702091EC00922F917020FD90E8892B05
:1014400094E09093E9009091EB0090FF14C090918C
:10145000EE0097FF10C09091E80095FF03C0109236
:10146000F100F9CF9091E80090FF05C09091E8005D
:101470009E779093E8008F708093E900109254015A
:10148000089542E061EC81E00E94E10C42E061ECF1
:1014900082E00E94E10C42E061EC83E00E94E10CFA
:1014A00042E261EC84E00E94E10C42E161EC85E003
:1014B0000C94E10C8091E301833009F455C030F4C1
:1014C000813071F0823009F48EC008958A3009F4B9
:1014D0007AC08B3009F460C0893009F09CC020C00C
:1014E0008091E201813A09F096C08091E800877FFF
:1014F0008093E8008091E6019091E701892B21F427
:1015000060E185E591E003C060E080E090E070E09C
:101510000E941D0C8091E8008B778093E80008956D
:101520008091E201813209F076C08091E6019091CC
:10153000E701009719F0049709F06DC08091E80069
:10154000877F8093E8008091E80082FD05C080914C
:10155000E1018111F8CF5FC08091F10080936501B6
:101560008091E8008B7753C08091E201813A09F0C5
:1015700052C08091E6019091E701892B09F04BC0A0
:101580008091E800877F8093E8008091E80080FFE9
:10159000FCCF80910A0136C08091E2018132D9F5F9
:1015A0008091E6019091E701892BA9F58091E800EF
:1015B000877F8093E8000E94160D8091E40180935C
:1015C0000A010C94B3158091E201813221F58091DA
:1015D000E800877F8093E8000E94160D8091E50166
:1015E0008093660108958091E201813AA1F480918F
:1015F000E800877F8093E8008091E80080FFFCCFBF
:10160000809166018093F1008091E8008E7780934D
:10161000E8000C94160D089584B7877F84BF0FB639
:10162000F894A89580916000886180936000109282
:1016300060000FBE90E080E80FB6F89480936100E0
:10164000909361000FBE0E94AD100E94670D0E9432
:10165000C40D8091E20084608093E20089E998E003
:101660000E946B1D78948091E101843019F00E94F2
:101670000010F9CF8CE392E00E948E060E94AF101A
:1016800080E091E00E941B108BE292E00E948E06A7
:101690008091E101853089F487E292E00E948E0614
:1016A0000E94861D8091DF01882391F30E94AF1D67
:1016B000882371F30E94BA0BEBCF0E94DD100E94C9
:1016C0000010E6CF292F332723303105C9F064F409
:1016D0002130310581F02230310509F043C08DE819
:1016E00090E029E832E042C021323105F1F02232A7
:1016F000310541F137C082E190E026E133E036C0A8
:1017000099278130910541F08230910541F0892B74
:1017100049F5E5E8F2E005C0E5E7F2E002C0E1E600
:10172000F2E0849190E09F0121C06530D8F4E62F6B
:10173000F0E0EE0FFF1FED5DFE4F2081318189E06B
:1017400090E014C0653070F470E0FB01EE0FFF1FF5
:10175000E75EFE4F20813181FB01EC5EFE4F808110
:1017600090E004C080E090E020E030E0FA013183B6
:101770002083089580E189BD82E189BD09B400FE1E
:10178000FDCF8091D8008F7D8093D8008091E000BC
:1017900082608093E0008091E00081FDFCCF08959D
:1017A000CF92DF92EF92FF920F931F93CF93DF932D
:1017B000EC018B017A010E94350D811135C0E114D5
:1017C000F10439F0F70180819181081B190BC80FD2
:1017D000D91FC12CD12C0115110529F18091E800E8
:1017E00085FD18C08091E8008E778093E8000E9404
:1017F0000010E114F10449F0F70180819181C80ED5
:10180000D91ED182C08285E00FC00E94350D882389
:1018100011F30AC089918093F10001501109FFEF83
:10182000CF1ADF0AD8CF80E0DF91CF911F910F91BF
:10183000FF90EF90DF90CF9008952091E8013091D4
:10184000E9012617370748F06115710539F4209131
:10185000E8002E772093E80001C0B90140E061154F
:101860007105A9F12091E101222309F443C025303B
:1018700009F442C02091E80023FD40C02091E80017
:1018800022FD32C02091E80020FFE9CF4091F30013
:101890002091F20030E0342BFC01CF01611571057D
:1018A00059F02830310540F481918093F100615066
:1018B00071092F5F3F4FF1CF41E02830310509F02A
:1018C00040E02091E8002E772093E800C8CF411136
:1018D000C9CF0AC08091E101882361F0853061F0B1
:1018E0008091E80083FD0AC08091E80082FFF2CF7A
:1018F00080E0089582E0089583E0089581E00895EE
:101900002091E8013091E9012617370748F0611569
:10191000710539F42091E8002E772093E80001C08A
:10192000B901FC0120E06115710591F18091E1019F
:10193000882309F440C0853009F43FC08091E80055
:1019400083FD3DC08091E80082FD2FC08091E800BA
:1019500080FFE9CF2091F3008091F20090E0922B7C
:101960006115710559F08830910540F42491209358
:10197000F1003196615071090196F2CF21E008978C
:1019800009F020E08091E8008E778093E800CBCFCB
:101990002111CCCF0AC08091E101882361F085300C
:1019A00061F08091E80083FD0AC08091E80082FF29
:1019B000F2CF80E0089582E0089583E0089581E009
:1019C0000895982F973058F59093E900981739F0BB
:1019D0007091EC002091ED005091F00003C0242F95
:1019E000762F50E021FF19C03091EB003E7F3093FD
:1019F000EB003091ED003D7F3093ED003091EB0036
:101A000031603093EB007093EC002093ED00509325
:101A1000F0002091EE0027FF07C09F5FD3CF8F70AB
:101A20008093E90081E0089580E008958091E201CB
:101A300087FF11C08091E80082FD05C08091E1011F
:101A40008111F8CF11C08091E8008B770BC0809195
:101A5000E101882349F08091E80080FFF8CF809170
:101A6000E8008E778093E80008952091E40030919B
:101A7000E50095E64091EC00842F817040FF22C084
:101A80008091E80080FD1CC08091E101882391F0E5
:101A9000853091F08091EB0085FD10C04091E4000D
:101AA0005091E5004217530729F39A01915011F71D
:101AB00084E0089582E0089583E0089581E0089528
:101AC00080E008954091E80042FFDECF08950E9433
:101AD000D50D0E94DD0DE0EEF0E080818160808315
:101AE000E8EDF0E080818F77808319BCA7EDB0E04E
:101AF0008C918E7F8C9380818F7E80831092E00109
:101B000008950F931F93CF93DF930E94D50D0E94EA
:101B1000DD0DC8EDD0E088818F778883888180686B
:101B2000888388818F7D888319BC1092E10110928F
:101B3000DD011092DF011092DE0100EE10E0F801ED
:101B400080818B7F808388818160888342E060E030
:101B500080E00E94E10CE1EEF0E080818E7F8083E6
:101B6000E2EEF0E080818160808380818860808304
:101B7000F80180818E7F8083888180618883DF91F6
:101B8000CF911F910F910895E8EDF0E080818F7E55
:101B90008083E7EDF0E080818160808384E082BF14
:101BA00081E08093E0010C94810DE8EDF0E080810C
:101BB0008E7F80831092E20008951092DA001092D6
:101BC000E10008951F920F920FB60F9211242F93E8
:101BD0003F934F935F936F937F938F939F93AF93B5
:101BE000BF93EF93FF938091E10082FF0BC0809140
:101BF000E20082FF07C08091E1008B7F8093E100CB
:101C00000E94000A8091DA0080FF1FC08091D800F6
:101C100080FF1BC08091DA008E7F8093DA00809174
:101C2000D90080FF0DC080E189BD82E189BD09B482
:101C300000FEFDCF81E08093E1010E94D90905C03B
:101C400019BC1092E1010E94EB098091E10080FF34
:101C500019C08091E20080FF15C08091E2008E7F64
:101C60008093E2008091E20080618093E2008091A5
:101C7000D80080628093D80019BC85E08093E10190
:101C80000E94F6098091E10084FF30C08091E2005B
:101C900084FF2CC080E189BD82E189BD09B400FECA
:101CA000FDCF8091D8008F7D8093D8008091E10096
:101CB0008F7E8093E1008091E2008F7E8093E2002E
:101CC0008091E20081608093E2008091DD018823B1
:101CD00011F084E007C08091E30087FD02C081E03D
:101CE00001C083E08093E1010E94FA098091E10044
:101CF00083FF24C08091E20083FF20C08091E10037
:101D0000877F8093E10082E08093E1011092DD0102
:101D10008091E1008E7F8093E1008091E2008E7FD0
:101D20008093E2008091E20080618093E20042E0D3
:101D300060E080E00E94E10C0E94F209FF91EF91C7
:101D4000BF91AF919F918F917F916F915F914F91D3
:101D50003F912F910F900FBE0F901F9018951F93DA
:101D6000CF93DF93CDB7DEB7AA970FB6F894DEBF57
:101D70000FBECDBFE2EEF1E088E08E0F9091F10052
:101D800091938E13FBCF0E945A0A8091E80083FF43
:101D90001FC18091E2019091E301492F50E04A3048
:101DA000510508F015C1FA01EA5AFF4F0C94892930
:101DB000803881F0823809F00BC18091E6018F7084
:101DC0008093E9008091EB0085FB882780F91092D1
:101DD000E90006C08091DE019091DF0191118260DF
:101DE0009091E800977F9093E8008093F100109223
:101DF000F100C8C0282F2D7F09F0EAC0882319F010
:101E0000823061F0E5C08091E401813009F0E0C0EA
:101E1000933009F080E08093DF012BC08091E401D2
:101E2000811127C08091E6018F7009F4D1C08093A1
:101E3000E9002091EB0020FF1CC0933021F4809139
:101E4000EB00806214C09091EB0090619093EB00E6
:101E500021E030E0A90102C0440F551F8A95E2F746
:101E60004093EA001092EA008091EB008860809332
:101E7000EB001092E9008091E800877F86C0811115
:101E8000A7C01091E4011F778091E3008078812B37
:101E90008093E3008091E800877F8093E8000E94B0
:101EA000160D8091E80080FFFCCF8091E3008068F0
:101EB0008093E300111102C082E001C083E08093AF
:101EC000E10186C08058823008F082C08091E40130
:101ED0009091E5018C3D53E0950779F583E08A8385
:101EE0008AE289834FB7F894DE01139620E03EE042
:101EF00051E2E32FF0E050935700E49120FF03C03C
:101F0000E295EF703F5FEF708E2F90E0EA3010F0B7
:101F1000C79601C0C0968D939D932F5F243149F7DA
:101F20004FBF8091E800877F8093E8006AE270E00D
:101F3000CE0101960E941D0C14C0AE014F5F5F4F91
:101F40006091E6010E94620BBC01892B09F440C03C
:101F50009091E800977F9093E80089819A810E9490
:101F6000800C8091E8008B778093E80031C0803846
:101F700079F58091E800877F8093E8008091DD010A
:101F80008093F1008091E8008E778093E8000E94B2
:101F9000160D1EC081111CC09091E4019230C0F456
:101FA0008091E800877F8093E8009093DD010E9494
:101FB000160D8091DD01811106C08091E30087FD3F
:101FC00002C081E001C084E08093E1010E94410AE7
:101FD0008091E80083FF0AC08091E800877F8093AA
:101FE000E8008091EB0080628093EB00AA960FB628
:101FF000F894DEBF0FBECDBFDF91CF911F91089542
:10200000CF938091E1018823A1F0C091E900CF70C6
:102010009091EC00892F817090FD80E8C82B109280
:10202000E9008091E80083FD0E94AF0ECF70C0935D
:10203000E900CF91089590936C0180936B0108950E
:10204000E0916B01F0916C01309721F00190F081EB
:10205000E02D099480E00895EF92FF920F931F9373
:10206000CF93DF93E0916B01F0916C013097B1F168
:102070008C010280F381E02D09958091CB0182FFD4
:102080002DC080FF04C08BE494E00E948E06E8011E
:1020900010E185E4E82E84E0F82E8091CB0180FFEA
:1020A0000BC088811F928F93FF92EF920E942707A7
:1020B0000F900F900F900F90115021961111EDCFAE
:1020C0008091CB0180FF0AC083E494E0DF91CF913F
:1020D0001F910F91FF90EF900C948E06DF91CF919E
:1020E0001F910F91FF90EF900895E0916B01F09197
:1020F0006C01309721F00480F581E02D099408955A
:102100002091690130916A018217930771F09093D1
:102110006A0180936901E0916B01F0916C01309745
:1021200021F00680F781E02D099408952091670140
:10213000309168018217930771F090936801809342
:102140006701E0916B01F0916C01309721F0008400
:10215000F185E02D0994089508950C94AC100E9427
:10216000EE1D0E946A070C94EC1ECF93C82F80913D
:10217000CB0182FF1EC080FF04C084E694E00E9471
:102180008E068091CB0180FF0CC01F92CF938FE50C
:1021900094E09F938F930E9427070F900F900F90CA
:1021A0000F908091CB0180FF04C08DE594E00E94E8
:1021B0008E068C2FCF910C948F08CF92DF92EF92E6
:1021C000FF920F931F93CF93DF93CDB7DEB72B977B
:1021D0000FB6F894DEBF0FBECDBF0E948E078EE60D
:1021E000C82E81E0D82E00E010E0E02E802F0E9463
:1021F0005808F60141916F01F42EF826B1F40F5FF3
:102200001F4F0830110589F78FEF89838A831B825E
:102210000E94F71D8160782F9D838C8349815A81AC
:102220006B818D810E94801140C09091CB0191FF04
:1022300004C08B870E9461088B8520E030E04F2D21
:1022400050E0922FBA01022E02C0759567950A944C
:10225000E2F760FF24C02E83EF8221E030E06901C5
:1022600002C0CC0CDD1C9A95E2F790E08C219D21F8
:10227000892B09F420E028870E94F71D8160782FC0
:102280009A8789874E815F8168858A850E9480113F
:10229000F801E259FE4F8081C826C08206C02F5F38
:1022A0003F4F2830310569F6AACF0E945D22109178
:1022B0006D010E9420101817A1F00E942010809339
:1022C0006D012B960FB6F894DEBF0FBECDBFDF9128
:1022D000CF911F910F91FF90EF90DF90CF900C94D2
:1022E000B5102B960FB6F894DEBF0FBECDBFDF91B1
:1022F000CF911F910F91FF90EF90DF90CF900895B5
:10230000CF93DF93CDB7DEB72B970FB6F894DEBF30
:102310000FBECDBF4F83588769877A878B87DE01D1
:10232000119686E0FD0111928A95E9F785E0FE019C
:10233000379601900D928A95E1F749815A816B8118
:102340007C818D819E810E9456182B960FB6F89441
:10235000DEBF0FBECDBFDF91CF910895CF9388230D
:1023600009F499C0C82F8CEF8C0F813A48F48C2F58
:102370000E94E32681118FC08C2F0E94F21A0CC09C
:1023800080E28C0F883058F4C77081E001C0880F5C
:10239000CA95EAF70E949A1BCF910C94DB1B8BE540
:1023A0008C0F833078F4C53A29F0C63A31F083E8CF
:1023B00090E005C081E890E002C082E890E0CF9113
:1023C0000C94801088E58C0F833108F064C0C83A03
:1023D00039F1C93A41F1CA3A49F1CB3A51F1CC3A13
:1023E00059F1CD3A61F1C03B69F1CE3A71F1CF3A82
:1023F00079F1C13B81F1C23B89F1C33B91F1C43B0F
:1024000099F1C53BA1F1C63BA9F1C73BB1F1C83B6E
:10241000B9F1C93BC1F1CA3BC9F180E090E038C0D5
:1024200082EE90E035C089EE90E032C08AEE90E016
:102430002FC085EB90E02CC086EB90E029C087EBA5
:1024400090E026C08CEC90E023C08DEC90E020C0A2
:1024500083E891E01DC08AE891E01AC082E991E02A
:1024600017C084E991E014C081E292E011C083E2D8
:1024700092E00EC084E292E00BC085E292E008C0D8
:1024800086E292E005C087E292E002C08AE292E032
:10249000CF910C949610CF910895882329F19CEF49
:1024A000980F913A18F40E94451B0DC090E2980FC6
:1024B000983058F4877091E001C0990F8A95EAF737
:1024C000892F0E94A01B0C94DB1B9BE5980F933077
:1024D00020F480E090E00C948010885A833120F43E
:1024E00080E090E00C9496100895882321F00E94DB
:1024F0009A1B0C94DB1B0895882321F00E94A01BDB
:102500000C94DB1B0895BF92CF92DF92EF92FF9263
:102510000F931F93CF93DF9300D000D000D0CDB79F
:10252000DEB725E0FC01DE01119601900D922A959F
:10253000E1F7FC01408131810281258122952F70D4
:1025400063817481672B09F4ECC23F3F19F44F3F5C
:1025500009F4E7C27C0149833A8389819A812E83F9
:102560000E94B11A182FB92E0E94B01A0E94771932
:10257000EB2DE295EF70F0E0E05AFF4F2E810C94C6
:1025800089298B2D807F9B2D9F70F92E882319F030
:10259000F29480EFF822002349F0FF2009F46EC284
:1025A0008F2D0E94AA1B0E94DB1B68C2812F0E94F4
:1025B0004D12FF2009F4B5C28F2D0E94B01B269644
:1025C0000FB6F894DEBF0FBECDBFDF91CF911F9144
:1025D0000F91FF90EF90DF90CF90BF900C94DB1B9A
:1025E0008B2D807F9B2D9F70803211F4892F03C02B
:1025F000892F8295807F112319F0113011F12BC0A2
:102600000023A9F0222389F1213079F526960FB60F
:10261000F894DEBF0FBECDBFDF91CF911F910F9118
:10262000FF90EF90DF90CF90BF900C94BA1B2223C5
:1026300019F0213009F475C28E830E94C31B8E816C
:102640009BC1002321F0263008F06BC20EC025305C
:1026500008F067C291C10023C9F0222331F0F701CD
:10266000958190FF0BC29F70958326960FB6F894C4
:10267000DEBF0FBECDBFDF91CF911F910F91FF90B5
:10268000EF90DF90CF90BF900C947512222309F445
:1026900073C109C22B2D26952695237030E0211594
:1026A000310521F021303105D1F03BC2002321F06A
:1026B000812F9B2D937002C080E090E026960FB68C
:1026C000F894DEBF0FBECDBFDF91CF911F910F9168
:1026D000FF90EF90DF90CF90BF900C94801000237C
:1026E00021F0812F9B2D937002C080E090E0269610
:1026F0000FB6F894DEBF0FBECDBFDF91CF911F9113
:102700000F91FF90EF90DF90CF90BF900C949610B8
:10271000812F002319F00E94E32002C00E944B2168
:1027200026960FB6F894DEBF0FBECDBFDF91CF91D6
:102730001F910F91FF90EF90DF90CF90BF900C947E
:10274000D0218B2D837009F07BC00111EAC1812F4C
:10275000829586958770880F880F912F9F70C92E5C
:10276000D12CE12CF12C082E04C0CC0CDD1CEE1C6D
:10277000FF1C0A94D2F714FF12C04FE050E060E053
:1027800070E004C0440F551F661F771F8A95D2F76B
:10279000CB01BA01609570958095909503C060E07B
:1027A00070E0CB012B2D269526952370422F50E00B
:1027B00042305105D9F04330510569F16C297D292A
:1027C0008E299F294130510551F126960FB6F89474
:1027D000DEBF0FBECDBFDF91CF911F910F91FF9054
:1027E000EF90DF90CF90BF900C949E196C297D29BB
:1027F0008E299F2926960FB6F894DEBF0FBECDBF57
:10280000DF91CF911F910F91FF90EF90DF90CF90CC
:10281000BF900C94BA190E949E19C701B601269662
:102820000FB6F894DEBF0FBECDBFDF91CF911F91E1
:102830000F91FF90EF90DF90CF90BF900C94821992
:10284000002319F08B2D817001C08695882309F42F
:1028500068C1812F829586958770880F880F912F88
:102860009F70C92ED12CE12CF12C082E04C0CC0C69
:10287000DD1CEE1CFF1C0A94D2F714FF12C04FE0BF
:1028800050E060E070E004C0440F551F661F771FE2
:102890008A95D2F7CB01BA01609570958095909595
:1028A00003C060E070E0CB012B2D269526952370A8
:1028B000422F50E042305105D9F04330510569F1C3
:1028C0006C297D298E299F294130510551F1269689
:1028D0000FB6F894DEBF0FBECDBFDF91CF911F9131
:1028E0000F91FF90EF90DF90CF90BF900C94781AEB
:1028F0006C297D298E299F2926960FB6F894DEBF74
:102900000FBECDBFDF91CF911F910F91FF90EF9040
:10291000DF90CF90BF900C94941A0E94781AC70150
:10292000B60126960FB6F894DEBF0FBECDBFDF917D
:10293000CF911F910F91FF90EF90DF90CF90BF90BC
:102940000C945C1A103F49F118F4103E48F491C001
:10295000123F09F453C0E8F1133F09F464C089C081
:102960001F708B2D8F71002321F00E94F519812F8C
:102970007CCE0E94161A812F26960FB6F894DEBFE1
:102980000FBECDBFDF91CF911F910F91FF90EF90C0
:10299000DF90CF90BF900C947C120023B1F02530D3
:1029A00008F0BFC08B2D8F7126960FB6F894DEBF4E
:1029B0000FBECDBFDF91CF911F910F91FF90EF9090
:1029C000DF90CF90BF900C943B1A263008F0A9C03E
:1029D000E9CF0023A9F08B2D8F7126960FB6F894BE
:1029E000DEBF0FBECDBFDF91CF911F910F91FF9042
:1029F000EF90DF90CF90BF900C94F519002359F31E
:102A00008B2D8F7126960FB6F894DEBF0FBECDBF0B
:102A1000DF91CF911F910F91FF90EF90DF90CF90BA
:102A2000BF900C94161A002399F08B2D8F71269667
:102A30000FB6F894DEBF0FBECDBFDF91CF911F91CF
:102A40000F91FF90EF90DF90CF90BF900C94E01922
:102A500026960FB6F894DEBF0FBECDBFDF91CF91A3
:102A60001F910F91FF90EF90DF90CF90BF900C944B
:102A7000D6190023A9F0222309F4ADCF812F269681
:102A80000FB6F894DEBF0FBECDBFDF91CF911F917F
:102A90000F91FF90EF90DF90CF90BF900C94AE110C
:102AA000222309F4ADCF812F26960FB6F894DEBF0E
:102AB0000FBECDBFDF91CF911F910F91FF90EF908F
:102AC000DF90CF90BF900C944D124B2D4F70612F23
:102AD000C7010E94300726960FB6F894DEBF0FBEDE
:102AE000CDBFDF91CF911F910F91FF90EF90DF90BD
:102AF000CF90BF900C94FA184B2D4F70612FC701E7
:102B000026960FB6F894DEBF0FBECDBFDF91CF91F2
:102B10001F910F91FF90EF90DF90CF90BF900C949A
:102B20006A1D26960FB6F894DEBF0FBECDBFDF91AB
:102B3000CF911F910F91FF90EF90DF90CF90BF90BA
:102B400008950E94B71B0E948C1B0E94DB1B0E94F1
:102B500002230E94D02180E090E00E94801080E05B
:102B600090E00C9496100E94A71B0C94A1150E9453
:102B7000B11A292F22952F7030E02C3031054CF4FA
:102B80002A3031056CF4225031092230310588F4A5
:102B900007C02C30310549F02F30310531F009C024
:102BA000803E48F0803F29F406C093FB882780F9D7
:102BB000089580E0089581E00895CF93DF9300D0D9
:102BC00000D01F92CDB7DEB70F900F900F900F90EF
:102BD0000F90DF91CF910895CF93DF9300D000D075
:102BE00000D0CDB7DEB726960FB6F894DEBF0FBE85
:102BF000CDBFDF91CF9108951F93CF93DF93C09105
:102C0000760116E080917701C81799F0D0E01C9FFB
:102C1000F0011D9FF00D1124E858FE4F40815181B5
:102C200062817381848195810E94EC152196C77021
:102C3000E9CFDF91CF911F9108954091A801509164
:102C4000A9016091AA017091AB018091AC019091B2
:102C5000AD010C94EC158091AD0182958F7009F057
:102C600054C08091AA01882309F44FC08091760155
:102C7000A09177016091A8017091A9014091AB01E9
:102C80005091AC01B6E08A1709F43FC090E04115BD
:102C90005105C1F17F3F11F46F3FA1F1B89FF001E1
:102CA000B99FF00D1124E858FE4F218172132AC0FC
:102CB0002081621327C02281211124C02381348105
:102CC0002417350710F421503109241B350B2C3201
:102CD0003140C0F42091AD012F7020612093AD01EF
:102CE00026E0289FF001299FF00D1124E358FE4FA4
:102CF00080818F708061808388EA91E00E948312D6
:102D00000C94FC1501968770BECF0895CF92DF9288
:102D1000EF92FF920F931F93CF93DF93CDB7DEB760
:102D200062970FB6F894DEBF0FBECDBF8C0185E071
:102D3000F801DE011D9601900D928A95E1F7D80108
:102D40004C9111965C91119712966C911297139673
:102D5000CD90DC9014973091A8017091A9018091D9
:102D6000AB019091AC01009709F473C17F3F19F456
:102D70003F3F09F46EC1E090AA01EE2009F4C5C0FE
:102D80002091AD01C816D90650F0F601E81BF90BE9
:102D9000CF01FF24F3948C329140C8F009C0809594
:102DA00090958C0D9D1DFF24F3948C32914078F00A
:102DB000F12C207F09F0C6C07C2DD98AC88A898968
:102DC0000E94DD1588EA91E00E948312B1C0822F33
:102DD000807F09F045C0751313C0341311C0611111
:102DE0000FC02F7020612093AD010E941D1688EA4C
:102DF00091E00E9483128091AD01F80185832EC07D
:102E0000CD2819F15F3F11F44F3FF9F0F62E611113
:102E10001CC0809176012091770136E0821709F479
:102E20005BC090E0389FF001399FF00D1124E85805
:102E3000FE4F7181571306C07081471303C0728122
:102E4000711103C001968770E9CFF62E662309F44D
:102E50001DC18091AD0181608093AD01F12C16C13F
:102E6000751309C0341307C0611105C08091AD010D
:102E7000F8018583C8C04D875E878D859E856A8BE6
:102E80000E94B7156A898823E1F16623D1F1209168
:102E9000AD01822F82958F7090E0029774F080913F
:102EA000A8019091A90198878F831986DB86CA862D
:102EB0002C87CE0107960E94831286E0F801A8EACB
:102EC000B1E001900D928A95E1F70E942B160E94C5
:102ED0001D16FF24F394DAC04D875E878D859E858D
:102EE0000E94B11A292F22952F7030E0223031052F
:102EF0000CF0BFC09F7009F0B9C0805E883008F444
:102F0000C5C0C8010E948312E4CFC816D90608F4D0
:102F100053C0F601E81BF90BCF018C32914008F445
:102F200053C0F12C7C2DD98AC88A89890E94DD156D
:102F3000E8EAF1E086E0DF011D928A95E9F70E9458
:102F40001D16A4C0751314C0341312C0611110C033
:102F50008091AD01F8018583C8010E94831286E04B
:102F6000E8EAF1E0DF011D928A95E9F7FE2C8EC0B8
:102F70004D875E878D859E856A8B0E94B7156A890D
:102F8000882309F4BECF662309F4BBCF2091AD019D
:102F9000822F82958F7090E002970CF48ECF8091F3
:102FA000A8019091A9019A8389831B82DD82CC823A
:102FB0002E83CE0101967FCF809590958C0D9D1D1F
:102FC0008C32914008F0ADCFF62E662309F499CFEC
:102FD00075132EC034132CC02091AD0120FD1FC0ED
:102FE000822F82958F70D9F0D80115962C93159762
:102FF0008F3049F08F5F982F9295907F822F8F703E
:10300000892B15968C93C8010E94831286E0F801E3
:10301000A8EAB1E001900D928A95E1F790CF86E0A1
:10302000F801A8EAB1E001900D928A95E1F72EC06F
:103030004D875E878D859E850E94B71581113DCF96
:103040008091AD0181608093AD01C8010E9483121F
:103050001DC0662309F455CF4D875E878D859E85FB
:103060000E94B715882309F44CCF27CF811145CF93
:103070000DC0243031050CF044CF9F7009F43DCFD2
:10308000D80115969C91907F09F037CF8F2D6296CD
:103090000FB6F894DEBF0FBECDBFDF91CF911F9169
:1030A0000F91FF90EF90DF90CF9008951F93CF93F3
:1030B000DF93CDB7DEB72C970FB6F894DEBF0FBE07
:1030C000CDBF4F83588769877A878B879C87CE01CE
:1030D00007960E948616882369F08F8198852A8535
:1030E0003B85232BF1F19F3F09F063C08F3F09F02F
:1030F00060C037C086E0FE013796DE011196019070
:103100000D928A95E1F76F817885EA85FB85309786
:1031100041F17F3F11F46F3F21F12091770130E0C1
:10312000C9010196877099274091760150E0841774
:10313000950709F447C069837A83FD83EC8396E0A1
:10314000929FD001939FB00D1124A858BE4FFE014D
:10315000319601900D929A95E1F7809377010E9444
:10316000FC1516E080917601909177018917C1F1E5
:10317000189FC001112488589E4F0E9486168823EC
:1031800079F1E09176011E9FF0011124E858FE4F7D
:103190004081518162817381848195810E94EC1507
:1031A0008091760190E0019687709927809376014F
:1031B000D9CF4F81588569857A858B859C850E94FA
:1031C000EC15CFCF0E94B3151092770110927601C3
:1031D000E8EAF1E086E0DF011D928A95E9F7C1CFC8
:1031E0002C960FB6F894DEBF0FBECDBFDF91CF9106
:1031F0001F910895EF92FF920F931F93CF93DF9348
:103200008C01892B09F46CC0F12CEE24E394E801C5
:103210002196F8018491843740F4843008F051C03D
:10322000813081F0823019F15BC0853709F444C0E8
:10323000A8F19CE7980F903708F052C08F770E9452
:103240004D1241C00E5F1F4FFE01C49180E28C0FF2
:10325000883048F4C7708E2D01C0880FCA95EAF7F0
:103260000E94AA1B14C08C2F0E94AE112DC00E5FAD
:103270001F4FFE01C49180E28C0F883058F4C77054
:103280008E2D01C0880FCA95EAF70E94B01B0E94DC
:10329000DB1B1AC08C2F0E944D1216C00E5F1F4FF1
:1032A000FE01C491CC2381F08FE99FE00197F1F7F3
:1032B00000C00000C150F6CF0E5F1F4FFE01F4901A
:1032C00003C00E94AE118E018F2D882309F49FCF79
:1032D000EFE9FFE03197F1F700C000008150F5CF32
:1032E000DF91CF911F910F91FF90EF900895089576
:1032F0006093B2017093B3018093B4019093B501D0
:103300000C94A1150F931F930091B2011091B3017A
:103310002091B4013091B501DC01CB01802B912BC0
:10332000A22BB32B8093B2019093B301A093B4016D
:10333000B093B5011F910F910C94A1150F931F939A
:103340000091B2011091B3012091B4013091B50107
:10335000DC01CB0180239123A223B3238093B2010C
:103360009093B301A093B401B093B5011F910F9155
:103370000C94A1150F931F930091B2011091B3010A
:103380002091B4013091B501DC01CB018027912758
:10339000A227B3278093B2019093B301A093B40105
:1033A000B093B5011F910F910C94A1151092AE012D
:1033B0001092AF011092B0011092B1010C94A115BE
:1033C00041E050E060E070E004C0440F551F661F0C
:1033D000771F8A95D2F74093AE015093AF01609367
:1033E000B0017093B1010C94A11541E050E060E090
:1033F00070E004C0440F551F661F771F8A95D2F7EF
:103400008091AE019091AF01A091B001B091B10156
:10341000482B592B6A2B7B2B4093AE015093AF0165
:103420006093B0017093B1010C94A11541E050E09C
:1034300060E070E004C0440F551F661F771F8A9537
:10344000D2F740955095609570958091AE0190911E
:10345000AF01A091B001B091B101482359236A2373
:103460007B234093AE015093AF016093B001709302
:10347000B1010C94A11541E050E060E070E004C09F
:10348000440F551F661F771F8A95D2F78091AE01B2
:103490009091AF01A091B001B091B1014827592797
:1034A0006A277B274093AE015093AF016093B00130
:1034B0007093B1010C94A1150F931F930091AE016D
:1034C0001091AF012091B0013091B101DC01CB012D
:1034D000802B912BA22BB32B8093AE019093AF0145
:1034E000A093B001B093B1011F910F910C94A1155D
:1034F0000F931F930091AE011091AF012091B00185
:103500003091B101DC01CB0180239123A223B323AD
:103510008093AE019093AF01A093B001B093B1013D
:103520001F910F910C94A1150F931F930091AE0161
:103530001091AF012091B0013091B101DC01CB01BC
:1035400080279127A227B3278093AE019093AF01E4
:10355000A093B001B093B1011F910F910C94A115EC
:103560000895CF92DF92EF92FF920F931F93CF9324
:10357000DF938C01C090B201D090B301E090B40110
:10358000F090B5014091AE015091AF016091B00152
:103590007091B101C42AD52AE62AF72ACFE1D0E0FA
:1035A000D701C6010C2E04C0B695A79597958795AF
:1035B0000A94D2F780FF07C0B8018C2F0E94F71C35
:1035C0008130910531F4219758F7B80180E00E94CD
:1035D000F71CDF91CF911F910F91FF90EF90DF903B
:1035E000CF90089590910A01992321F090910B01B9
:1035F000911109C020910C0130910D01F901329611
:103600009FEF40E030C0982F9695969596959F3005
:10361000A0F4E0910C01F0910D01E90FF11D87700C
:1036200021E030E0A90102C0440F551F8A95E2F75E
:10363000CA019181892B818308959091CB0190FFDC
:1036400023C01F928F9385E994E09F938F930E94EC
:1036500027070F900F900F900F9008959F3F39F01C
:103660004F5F4E3041F051915813F8CF0DC05111BA
:10367000F7CF942FF5CF9F3F39F0F901E90FF11DF6
:1036800097FDFA9582830895089590910A019923F0
:1036900021F090910B01911109C020910C01309102
:1036A0000D01F9013296205F3F4F30C0982F96955B
:1036B000969596959F30A8F4E0910C01F0910D013C
:1036C000E90FF11D877021E030E0A90102C0440F2D
:1036D000551F8A95E2F7CA018095918189238183DC
:1036E00008959091CB0190FF16C01F928F9387E7AA
:1036F00094E09F938F930E9427070F900F900F9055
:103700000F9008953196E217F30729F090819813EE
:10371000F9CF1082F7CF089581E090E0E0910C019D
:10372000F0910D01E80FF91F10820196803191058B
:10373000A9F708959091CA01892B8093CA01089531
:1037400080959091CA0189238093CA0108951092AF
:10375000CA0108959091C901892B8093C9010895E8
:1037600080959091C90189238093C9010895109291
:10377000C90108958093B8010E94F71D9093B70185
:103780008093B60108951092B8011092B70110927B
:10379000B601089580910C0190910D01FC013196C4
:1037A0009C01205F3F4F80E0919191118F5FE21764
:1037B000F307D1F70895E0910C01F0910D0180918C
:1037C000CA018083E0910C01F0910D0190818091FC
:1037D000C901892B80838091B8018823D9F10E9487
:1037E000F71D2091B6013091B7018217930748F079
:1037F0000E94F71D2091B6013091B701821B930BF7
:103800000AC00E94F71D2091B6013091B7012095A2
:103810003095820F931F8C32914070F08091CB01D4
:1038200080FF08C083EB94E09F938F930E9427074B
:103830000F900F900E94C31BE0910C01F0910D01BD
:1038400090818091B801892B80830E94CA1B8111CD
:103850000E94C31B80910C0190910D010C942C10BF
:10386000CF93DF938D3B50F4883A10F5853AB8F446
:10387000843090F4813009F46FC00BC0883E30F47E
:10388000803E50F48F3B09F459C003C0803F08F0DC
:1038900051C0C0E0D0E0A7C0C82FD0E0A4C0853A96
:1038A00009F45DC0863A09F45DC0C3E8D0E49BC06A
:1038B000883A09F45AC0893A09F45AC08A3A09F494
:1038C0005AC08B3A09F45AC08C3A09F45AC08B3B5F
:1038D00009F45AC08C3B09F45AC08D3A09F45AC015
:1038E000803B09F45AC08E3A09F45AC08F3A09F461
:1038F0005AC0813B09F45AC0823B09F45AC0833B49
:1039000009F45AC0843B09F45AC0853B09F45AC0F3
:10391000863B09F45AC0873B09F45AC0883B09F436
:103920005AC0893B09F45AC08A3B09F45AC0C0E026
:10393000D4E459C0C82FD0E0D06555C00E94B3155B
:103940002FEF80E792E0215080409040E1F700C0E7
:1039500000000E948A1E47C0C1E0D0E044C0C1E818
:10396000D0E441C0C2E8D0E43EC0C2EED4E43BC0E3
:10397000C9EED4E438C0CAEED4E435C0C5EBD4E413
:1039800032C0C6EBD4E42FC0C3EBD4E42CC0C4EBEC
:10399000D4E429C0C7EBD4E426C0CCECD4E423C0E3
:1039A000CDECD4E420C0C3E8D5E41DC0CAE8D5E41A
:1039B0001AC0C2E9D5E417C0C4E9D5E414C0C1E215
:1039C000D6E411C0C3E2D6E40EC0C4E2D6E40BC014
:1039D000C5E2D6E408C0C6E2D6E405C0C7E2D6E434
:1039E00002C0CAE2D6E4CE01DF91CF9108950E94D1
:1039F0004F07803EA8F4803C00F5813309F45CC099
:103A000038F4893209F452C08A3209F45BC05FC0CD
:103A10008933B1F08238A1F0853309F441C057C031
:103A2000833E41F128F4803E99F0823EB9F04FC0C8
:103A3000863E31F1873E71F14AC00E9461070895C8
:103A40009091DC0190FD02C091FF41C080EE3FC02B
:103A50008091DC0180FFFACF89E339C08091DC01DD
:103A600082FF0CC08091DC0184FF02C080E02FC087
:103A700083EE2DC08091DC0182FFF4CF82EE27C05F
:103A80008091DC0183FF0AC08091DC0184FDEECFD0
:103A900087EE1DC08091DC0183FFF6CF86EE17C054
:103AA0008091DC0185FF06C089E211C08091DC01B4
:103AB00085FFFACF85E30BC08091DC0186FF06C04D
:103AC0008AE205C08091DC0186FFFACF81E30E9483
:103AD000301C08950895909339018093380108951A
:103AE0008295982F9C7C392F36953695282F2373F5
:103AF00044E0249FC0011124932F982B292F2A7A68
:103B00002695892F8575880F822B08958091E10174
:103B1000843021F11092CC0120E488E190E00FB6CE
:103B2000F894A895809360000FBE2093600083B73F
:103B3000817F846083BF83B7816083BF78948895D9
:103B400083B78E7F83BF0FB6F894A89580916000ED
:103B5000886180936000109260000FBE0895CF933B
:103B60000E948D080E948E070E948E08C0E08C2F54
:103B70000E945808811104C0CF5FC830C1F701C04E
:103B800081E0CF9108950C94B3151F920F920FB658
:103B90000F9211248F939F93AF93BF938091CC0189
:103BA000811113C08091CD019091CE01A091CF01E0
:103BB000B091D0014196A11DB11D8093CD0190938C
:103BC000CE01A093CF01B093D001BF91AF919F914F
:103BD0008F910F900FBE0F901F90189582E084BDBB
:103BE00093E095BD9AEF97BD80936E0008952FB72F
:103BF000F8948091CD019091CE01A091CF01B09128
:103C0000D0012FBF08952FB7F8946091CD01709126
:103C1000CE018091CF019091D0012FBF0895CF9216
:103C2000DF92EF92FF920F931F932FB7F89440917A
:103C3000CD015091CE016091CF017091D0012FBF85
:103C40006A017B01EE24FF248C0120E030E0C016E5
:103C5000D106E206F30610F4415051099A01281BDF
:103C6000390BC9011F910F91FF90EF90DF90CF901A
:103C70000895CF92DF92EF92FF920F931F932FB789
:103C8000F894C090CD01D090CE01E090CF01F0909B
:103C9000D0012FBF97018601061B170B280B390B8C
:103CA000C616D706E806F90618F0C901B80106C01D
:103CB000C901B80161507109810991091F910F91E2
:103CC000FF90EF90DF90CF9008951F920F920FB664
:103CD0000F9211248F939F93AF93BF938091CD0147
:103CE0009091CE01A091CF01B091D0010196A11D7C
:103CF000B11D8093CD019093CE01A093CF01B093DD
:103D0000D001BF91AF919F918F910F900FBE0F90F7
:103D10001F9018950E94670DF8942FEF87EA91E69F
:103D2000215080409040E1F700C0000087E090EB18
:103D3000DC018093EA019093EB01A093EC01B09336
:103D4000ED019CE088E10FB6F894A895809360009F
:103D50000FBE90936000FFCFEF92FF920F931F93DF
:103D6000CF93DF93D82FC0E08C2F0E94580800E03B
:103D700010E0E82EF12CC701002E02C09595879522
:103D80000A94E2F780FD06C00F5F1F4F083011054F
:103D900091F709C0602F7C2F80E00E944F07D81355
:103DA000F3CF81E004C0CF5FC830F1F680E0DF914F
:103DB000CF911F910F91FF90EF900895CF93C82F4F
:103DC0008CE20E94AC1E882321F08C2FCF910C94A2
:103DD000AC1E80E0CF910895CF930E943B208111CB
:103DE00002C00E9421208CEC94E00E948E06C5E661
:103DF000C15049F00E948E078FE39CE90197F1F7CB
:103E000000C00000F5CF85EC94E00E948E0689E2A8
:103E10000E94DE1E811113C18AE20E94DE1E811102
:103E20000E94212085E00E94DE1E81110E948A1ED0
:103E30000E9446208093CB0187E00E94DE1E8823EB
:103E4000A9F18BE10E94DE1E882351F08091CB0105
:103E500081FB222720F991E0922790FB81F90EC087
:103E60008EE00E94DE1E882361F08091CB0182FBF0
:103E7000222720F991E0922790FB82F98093CB01D1
:103E800015C080E10E94DE1E9091CB01882341F095
:103E900093FB222720F981E0822780FB93F904C05D
:103EA000892F809580FB90F99093CB018091CB0175
:103EB0000E944A200E9458208093DC0180EE0E94DC
:103EC000DE1E882341F08091DC01982F909590FBB5
:103ED00080F98093DC0189E30E94DE1E882359F07B
:103EE0008091DC0181FB222720F991E0922790FB51
:103EF00081F98093DC0182EE0E94DE1E882359F056
:103F00008091DC0182FB222720F991E0922790FB2F
:103F100082F98093DC0186EE0E94DE1E882359F030
:103F20008091DC0183FB222720F991E0922790FB0E
:103F300083F98093DC0183EE0E94DE1E882359F012
:103F40008091DC0184FB222720F991E0922790FBED
:103F500084F98093DC0185E30E94DE1E882359F0FA
:103F60008091DC0185FB222720F991E0922790FBCC
:103F700085F98093DC0181E30E94DE1E882359F0DD
:103F80008091DC0186FB222720F991E0922790FBAB
:103F900086F98093DC0181E10E94DE1E882359F0BE
:103FA0008091DC0187FB222720F991E0922790FB8A
:103FB00087F98093DC018091DC010E945C20809174
:103FC000DC0187FB882780F980930B0187E20E9440
:103FD000DE1EC82F8EE10E94DE1E8111C2608FE1BD
:103FE0000E94DE1E8111C46080E20E94DE1E8111EB
:103FF000C86081E20E94DE1E8111C06182E20E94DF
:10400000DE1E8111C06283E20E94DE1E8111C06447
:1040100084E20E94DE1E882311F0C06802C0CC2317
:1040200029F08C2F0E9453206C2F03C00E944F2038
:10403000682F70E080E090E0CF910C947819CF91D8
:1040400008956DEE7EEF80E090E00E94BF2960E071
:1040500082E090E00E94B12960E083E090E00E945D
:10406000B12960E084E090E00E94B12960E085E041
:1040700090E00C94B12980E090E00E94AB2921E00F
:104080008D3E9E4F09F020E0822F089582E090E05F
:104090000C94A329682F82E090E00C94B12983E06E
:1040A00090E00C94A329682F83E090E00C94B12950
:1040B00084E090E00C94A329682F84E090E00C94B5
:1040C000B1298091D30180FF0BC06091110185E07F
:1040D000689FB001112475956795759567952BC0FC
:1040E00081FF09C06091110185E0689FB001112432
:1040F0007595679520C082FF07C06091110185E02A
:10410000689FB001112417C09091D4019923D1F078
:1041100060911001961788F72091110185E0289F82
:1041200090011124929FA001939F500D112470E0E3
:10413000CA010E9475296038710540F46115710546
:1041400039F002C065E070E0862F08958FE708958A
:1041500081E008958091D30180FF08C060910F0134
:1041600070E0759567957595679521C081FF06C0CC
:1041700060910F0170E07595679519C082FF04C0CA
:1041800060910F0170E010C09091D4019923C1F0AB
:1041900060910E019617A0F780910F01899FC001D1
:1041A000112470E00E9475296038710528F46115AA
:1041B000710521F0862F08958FE7089581E0089515
:1041C00061E070E0F4CF803F21F40E94612081958E
:1041D00004C0813F29F40E9461208093D701089593
:1041E000823F21F40E946120819504C0833F29F41D
:1041F0000E9461208093D6010895893F19F40E949E
:10420000AA2005C08A3F31F40E94AA20819580939C
:10421000D80108958B3F21F40E94AA20819504C003
:104220008C3F29F40E94AA208093D9010895843FED
:1042300021F48091D501816017C0853F21F48091E0
:10424000D501826011C0863F21F48091D501846040
:104250000BC0873F21F48091D501886005C0883F5D
:1042600031F48091D50180618093D50108958D3F0F
:1042700021F48091D30181600BC08E3F21F48091A5
:10428000D301826005C08F3F29F48091D3018460FF
:104290008093D3010895803F39F48091D70187FF3F
:1042A0006CC01092D70169C0813F29F48091D70179
:1042B0001816BCF362C09091D601823F29F497FF93
:1042C0005CC01092D60159C0833F19F41916CCF383
:1042D00054C0893F41F48091D80118160CF04DC0AC
:1042E0001092D8014AC08A3F29F48091D80187FFF3
:1042F00044C0F6CF8B3F39F48091D90187FF3DC090
:104300001092D9013AC08C3F29F48091D901181636
:10431000BCF333C0843F21F48091D5018E7F17C058
:10432000853F21F48091D5018D7F11C0863F21F416
:104330008091D5018B7F0BC0873F21F48091D501FF
:10434000877F05C0883F31F48091D5018F7E8093AF
:10435000D50113C08D3F21F48091D3018E7F0BC016
:104360008E3F21F48091D3018D7F05C08F3F29F4CA
:104370008091D3018B7F8093D3018091D6018111ED
:104380000EC08091D70181110AC08091D80181119E
:1043900006C08091D901811102C01092D401089504
:1043A0008091CB0183FF7EC088E095E00E948E065D
:1043B0008091D5011F928F9383E095E09F938F9317
:1043C0000E94270781E095E00E948E068091D60129
:1043D000282F082E000C330B3F938F938EEF94E021
:1043E0009F938F930E9427078CEF94E00E948E0684
:1043F0008091D701282F082E000C330B3F938F9309
:1044000089EF94E09F938F930E94270787EF94E0B2
:104410000E948E068091D801282F082E000C330BA5
:104420003F938F9384EF94E09F938F930E9427078D
:1044300082EF94E00E948E068091D901282F082EE9
:10444000000C330B3F938F938FEE94E09F938F93E9
:104450000E9427078CEE94E00E948E068091D40182
:104460001F928F9389EE94E09F938F930E9427076A
:1044700087EE94E00E948E068091D3011F928F9365
:1044800084EE94E09F938F930E94270781EE94E03F
:104490000E948E068DB79EB74C960FB6F8949EBFBD
:1044A0000FBE8DBF85ED91E00E9475100E94F71D33
:1044B0009093D2018093D10108951F93CF93DF93FE
:1044C0008091D1019091D2010E940F1EAC01909178
:1044D000D401992321F02091120130E006C02091EF
:1044E00013018AE0289F900111244217530708F412
:1044F00085C08091D601C091D701D091D80110918B
:10450000D901811107C0C11175C0D11173C011113A
:1045100071C074C09F3F19F09F5F9093D40118162B
:1045200024F40E9461208093D6018091D60187FFF8
:1045300005C00E94612081958093D6011C1624F449
:104540000E9461208093D7018091D70187FF05C029
:104550000E94612081958093D7016091D6016623E6
:1045600031F1C091D701CC2311F1062E000C770B4D
:10457000880B990B0E94702823E333E343E35FE346
:104580000E94D4280E9438286093D6016C2FCC0F4B
:10459000770B880B990B0E94702823E333E343E3E6
:1045A0005FE30E94D4280E9438286093D7011D162B
:1045B00024F40E94AA208093D8018091D80187FF1B
:1045C00005C00E94AA2081958093D801111624F479
:1045D0000E94AA208093D9018091D90187FF05C04C
:1045E0000E94AA2081958093D901DF91CF911F91DC
:1045F0000C94D0219F3F09F08FCF97CFDF91CF91BF
:104600001F910895E5EDF1E085E0DF011D928A95A7
:10461000E9F71092D4011092D30108958BE297E04C
:104620000E948E061F9281E08F931F9285E08F93E8
:104630008DED96E09F938F930E9427070F900F9028
:104640000F900F900F900F9008958330E9F128F4A8
:10465000813061F0823009F10895853009F462C03B
:1046600008F449C0863009F474C00895809113019C
:10467000262F30E0280F311D2F3F310524F4680F1D
:104680006093130103C08FEF809313018091130196
:104690001F928F9386E196E072C080911201262FBF
:1046A00030E0280F311D2F3F310524F4680F60934F
:1046B000120103C08FEF80931201809112011F92AB
:1046C0008F9384E096E05BC080911101262F30E04B
:1046D000280F311D2F3F310524F4680F609311011D
:1046E00003C08FEF80931101809111011F928F936E
:1046F00081EF95E044C080911001262F30E0280F13
:10470000311D2F3F310524F4680F6093100103C061
:104710008FEF80931001809110011F928F938CED89
:1047200095E02DC080910F01262F30E0280F311D1C
:104730002F3F310524F4680F60930F0103C08FEF02
:1047400080930F0180910F011F928F9383EC95E06E
:1047500016C080910E01262F30E0280F311D2F3F0B
:10476000310524F4680F60930E0103C08FEF80932E
:104770000E0180910E011F928F9388EA95E09F931E
:104780008F930E9427070F900F900F900F9008951E
:10479000833081F128F4813059F08230D1F00895CE
:1047A000853009F449C0B8F1863009F456C008953F
:1047B00080911301681720F4861B8093130102C0B7
:1047C00010921301809113011F928F9389E995E054
:1047D00054C080911201681720F4861B8093120147
:1047E00002C010921201809112011F928F9387E8EC
:1047F00095E043C080911101681720F4861B8093D7
:10480000110102C010921101809111011F928F932A
:1048100084E795E032C080911001681720F4861B70
:104820008093100102C010921001809110011F921C
:104830008F938FE595E021C080910F01681720F4D8
:10484000861B80930F0102C010920F0180910F010F
:104850001F928F9386E495E010C080910E01681737
:1048600020F4861B80930E0102C010920E018091ED
:104870000E011F928F938BE295E09F938F930E947E
:1048800027070F900F900F900F900895CF93C82F88
:104890001F928F9380E398E09F938F930E94270746
:1048A00081E090E0A0E0B0E0BC01CD0104C0660F63
:1048B000771F881F991FCA95D2F70E9478190F9009
:1048C0000F900F900F90CF910C94B315CF938B3125
:1048D00009F4CBC108F049C08E3009F4DAC100F503
:1048E000873009F4A9C1A8F4863009F060C280912C
:1048F000CB01817F8E7F8093CB0185E398E00E947E
:104900008E0683E69CE00E948E0681E08093DB01A8
:1049100091C1883009F45BC08B3009F487C147C26C
:10492000813109F42CC220F4803109F4C6C13FC2A0
:10493000863109F4DDC1893109F039C287ED9BE088
:104940000E948E068AEA9BE00E948E0683E79BE027
:104950000E948E0686E49BE00E948E0682E09BE029
:104960000E948E0684ED9AE063C1853309F419C272
:1049700068F4873209F415C228F48E3108F417C29E
:104980008D5112C2893209F40CC211C2833438F439
:104990008A3308F008C2883309F448C108C2833456
:1049A00009F4FFC1883409F002C20E94B31582E500
:1049B0009CE00E948E069FEF23ED80E39150204003
:1049C0008040E1F700C000000E948A1E33C187E6E4
:1049D0009CE00E948E0684E39AE00E948E060E946C
:1049E0004F201F928F9381E39AE09F938F930E94B1
:1049F00027078FE29AE00E948E060E944620C82F69
:104A00008CE19AE00E948E061F92CF9387E19AE094
:104A10009F938F930E94270785E19AE00E948E065C
:104A20008BE09AE00E948E068C2F81701F928F93EC
:104A300088E09AE09F938F930E94270786E09AE090
:104A40000E948E068CEF99E00E948E06C1FB88279B
:104A500080F91F928F9389EF99E09F938F930E9423
:104A6000270787EF99E00E948E068BEE99E00E945F
:104A70008E06C2FB882780F91F928F9388EE99E0FB
:104A80009F938F930E94270786EE99E00E948E06DF
:104A90008DED99E00E948E06C3FBCC27C0F91F92D2
:104AA000CF938AED99E09F938F930E94270788ED1B
:104AB00099E00E948E060E945820C82F84EC99E04D
:104AC0000E948E061F92CF938FEB99E09F938F9356
:104AD0000E9427078DEB99E00E948E0684EA99E0F8
:104AE0000E948E068C2F81701F928F9381EA99E02D
:104AF0009F938F930E9427078DB79EB780960FB61E
:104B0000F8949EBF0FBE8DBF8FE999E00E948E067C
:104B100088E899E00E948E06C1FB882780F91F92E1
:104B20008F9385E899E09F938F930E94270783E8EE
:104B300099E00E948E0681E799E00E948E06C2FBF2
:104B4000882780F91F928F938EE699E09F938F9329
:104B50000E9427078CE699E00E948E068AE599E07C
:104B60000E948E06C3FB882780F91F928F9387E5EA
:104B700099E09F938F930E94270785E599E00E9413
:104B80008E068BE499E00E948E06C4FB882780F98C
:104B90001F928F9388E499E09F938F930E94270739
:104BA00086E499E00E948E0684E399E00E948E06D6
:104BB000C5FB882780F91F928F9381E399E09F932B
:104BC0008F930E9427078FE299E00E948E0683E16F
:104BD00099E00E948E06C6FB882780F91F928F936A
:104BE00080E199E09F938F930E9427078EE099E0E0
:104BF0000E948E0686E099E00E948E06C7FBCC27B5
:104C0000C0F91F92CF9383E099E09F938F930E9406
:104C1000270781E099E00E948E068DB79EB74C96DB
:104C20000FB6F8949EBF0FBE8DBF04C08CE598E010
:104C30000E948E06C1E0C0C08091CB01C82FC17018
:104C400080FF09C085E49CE00E948E068091CB0124
:104C5000817F8E7F47C089E39CE00E948E06809111
:104C6000CB0181608093CB01E5CF9091CB0191FB8B
:104C7000CC27C0F981E0C827892FC0FB81F9809338
:104C8000CB01CC2319F08CE29CE027C08EE19CE0A4
:104C9000CFCF9091CB0192FBCC27C0F981E0C82700
:104CA000892FC0FB82F98093CB01CC2319F08FE0D0
:104CB0009CE013C08FEF9BE0BBCF9091CB0193FBA7
:104CC000CC27C0F981E0C827892FC0FB83F98093E6
:104CD000CB01CC2351F083EF9BE00E948E068091A4
:104CE000CB0181608093CB0167C086EE9BE0A0CFB3
:104CF00086EC9AE00E948E060E9420101F928F93ED
:104D00008CEA9AE09F938F930E94270780910A0173
:104D10001F928F9385E99AE09F938F930E942707B4
:104D2000809166011F928F9382E89AE09F938F9300
:104D30000E94270780910B011F928F938FE69AE0C4
:104D40009F938F930E9427078091CD019091CE0170
:104D5000A091CF01B091D001BF93AF939F938F9358
:104D60008BE59AE09F938F930E9427078DB79EB79C
:104D700046960FB6F8949EBF0FBE8DBF5BCF0E94C4
:104D8000B315C0910B0181E0C827C0930B01CC2360
:104D900029F081E59AE00E948E060EC086E49AE032
:104DA00047CF80E001C089530E94462443CF84E46A
:104DB0009AE00E948E06C0E08C2FCF91089580E08B
:104DC000089580E00895CF93C82F8091DB01813052
:104DD00071F020F0823009F44BC042C1E0910C0127
:104DE000F0910D018081823209F03CC107C0E09151
:104DF0000C01F0910D018081823261F48C2F0E94B0
:104E0000DF26811104C08C2F0E9466242FC081E010
:104E100090E02CC08C2F0E94E126811126C0C43165
:104E2000E1F070F4CB3081F0C031D1F40E940E2358
:104E300088E298E00E948E0682E08093DB0115C034
:104E4000C93259F0C83361F485E398E00E948E06B8
:104E50008CE298E00E948E0608C01092DB0104C12B
:104E600086E298E00E948E06FFC081E08170FEC05D
:104E7000C43228F5CE3108F0C1C0CB30A1F1D0F456
:104E8000C73009F0D3C08EE18093130182E3809391
:104E900012018AE08093110184E18093100188E07F
:104EA00080930F0188E280930E018CEC96E00E94C3
:104EB0008E06BFC0C33149F1C431C1F0B7C0CB3495
:104EC00009F4A9C028F4C93289F0C83361F0AEC032
:104ED000C13509F49EC0C23509F499C0CE3409F039
:104EE000A5C06AE09EC00E940E23A3C08091DA0193
:104EF000882319F01092DA019CC089ED96E00E9497
:104F00008E0681E08093DB01B1C083EB96E00E94C6
:104F10008E0681EA96E00E948E06809113011F9210
:104F20008F938EE996E09F938F930E9427078CE9D9
:104F300096E00E948E068AE896E00E948E06809196
:104F400012011F928F9387E896E09F938F930E94A0
:104F5000270785E896E00E948E0686E796E00E9485
:104F60008E06809111011F928F9383E796E09F93A5
:104F70008F930E94270781E796E00E948E0680E6C5
:104F800096E00E948E06809110011F928F938DE50E
:104F900096E09F938F930E9427078BE596E00E94EF
:104FA0008E0686E496E00E948E0680910F011F9285
:104FB0008F9383E496E09F938F930E94270781E469
:104FC00096E00E948E068AE296E00E948E0680910C
:104FD0000E011F928F9387E296E09F938F930E941A
:104FE000270785E296E00E948E068DB79EB7489609
:104FF0000FB6F8949EBF0FBE8DBF1BC0CE51EC2FD5
:10500000F0E0E35DFE4F80818093DA0112C061E041
:1050100003C061E006C06AE08091DA010E942523A6
:1050200008C08091DA010E94C82303C08AEC96E090
:1050300013C08091DA01882369F01F928F9384EC6A
:1050400096E09F938F930E9427070F900F900F90E9
:105050000F9004C081EC96E00E948E0681E006C0AD
:105060001092DB0180E002C080E000CFCF91089574
:105070000E943F286894B1110C94CE2808950E9494
:10508000B32888F09F5798F0B92F9927B751B0F0FF
:10509000E1F0660F771F881F991F1AF0BA95C9F7BC
:1050A00014C0B13091F00E94CD28B1E008950C9465
:1050B000CD28672F782F8827B85F39F0B93FCCF318
:1050C000869577956795B395D9F73EF49095809539
:1050D000709561957F4F8F4F9F4F0895E89409C059
:1050E00097FB3EF490958095709561957F4F8F4F1B
:1050F0009F4F9923A9F0F92F96E9BB279395F69531
:10510000879577956795B795F111F8CFFAF4BB0FAE
:1051100011F460FF1BC06F5F7F4F8F4F9F4F16C012
:10512000882311F096E911C0772321F09EE8872F9C
:10513000762F05C0662371F096E8862F70E060E058
:105140002AF09A95660F771F881FDAF7880F9695D1
:10515000879597F9089557FD9058440F551F59F0BA
:105160005F3F71F04795880F97FB991F61F09F3F54
:1051700079F087950895121613061406551FF2CF7D
:105180004695F1DF08C0161617061806991FF1CFCD
:1051900086957105610508940895E894BB276627F4
:1051A0007727CB0197F908950E94E7280C94582996
:1051B0000E944A2938F00E94512920F0952311F0CD
:1051C0000C9441290C94472911240C94CE280E9458
:1051D000AB2870F3959FC1F3950F50E0551F629F68
:1051E000F001729FBB27F00DB11D639FAA27F00D40
:1051F000B11DAA1F649F6627B00DA11D661F829F67
:105200002227B00DA11D621F739FB00DA11D621F4B
:10521000839FA00D611D221F749F3327A00D611D68
:10522000231F849F600D211D822F762F6A2F11244A
:105230009F5750409AF0F1F088234AF0EE0FFF1F7D
:10524000BB1F661F771F881F91505040A9F79E3FD4
:10525000510580F00C9441290C94CE285F3FE4F373
:10526000983ED4F3869577956795B795F795E7952A
:105270009F5FC1F7FE2B880F911D9695879597F933
:10528000089597F99F6780E870E060E008959FEFC8
:1052900080EC089500240A941616170618060906CD
:1052A000089500240A94121613061406050608959C
:1052B000092E0394000C11F4882352F0BB0F40F424
:1052C000BF2B11F460FF04C06F5F7F4F8F4F9F4F64
:1052D0000895991B79E004C0991F961708F0961B52
:1052E000881F7A95C9F78095089597FB072E16F4C5
:1052F000009407D077FD09D00E948F2907FC05D0C4
:105300003EF4909581959F4F0895709561957F4FDC
:105310000895EE0FFF1F0590F491E02D0994AA1B4C
:10532000BB1B51E107C0AA1FBB1FA617B70710F090
:10533000A61BB70B881F991F5A95A9F780959095C2
:10534000BC01CD010895F999FECF92BD81BDF89AB7
:10535000992780B50895A8E1B0E042E050E00C94B0
:10536000C629262FF999FECF1FBA92BD81BD20BD57
:105370000FB6F894FA9AF99A0FBE019608950E9412
:10538000B129272F0C94B229DC01CB01FC01F9993A
:10539000FECF06C0F2BDE1BDF89A319600B40D9281
:0C53A00041505040B8F70895F894FFCF3A
:1053AC009608870964093009FC080101B90128082D
:1053BC00140A321E3F4D3620390404B703810361B1
:1053CC000328039B02B402CD02E60206030102038A
:0853DC000405060708090000A2
:00000001FF
