:100000000C9418060C945C060C945C060C945C062C
:100010000C945C060C945C060C945C060C945C06D8
:100020000C945C060C945C060C94BB0D0C945C0662
:100030000C94A41D0C945C060C945C060C945C0659
:100040000C945C060C945C060C945C060C945C06A8
:100050000C945C060C94431E0C945C060C945C0699
:100060000C945C060C945C060C945C060C945C0688
:100070000C945C060C945C060C945C060C945C0678
:100080000C945C060C945C060C945C060C945C0668
:100090000C945C060C945C060C945C060C945C0658
:1000A0000C945C060C945C060C945C06B10ED30EAA
:1000B000BE0FD30EBE0F150F380FBE0F8D0FA00F42
:1000C0009E129E12CC12CC1221135D134E154E15AA
:1000D00075134E156C146C1428154E154E153C15E1
:1000E000022B0001E2012B0001A902A900012C0250
:1000F0002C012D022D01E10137023702E1012C0212
:100100002C00F1A104A2292100C01F141A16C11D40
:100110001B06202115080709190522231C170A0BA5
:1001200011001E292BC2E1E3E22C2425180C0E0D30
:10013000100031352A28C0E5E7E626271213330FD1
:1001400036002D2E302F343837003B0101A9AA018B
:1001500001013C3D0101A80101013E3F01010155A2
:1001600057003A01390101010101404101464A5459
:100170005600494C2A580101010142434748504B5F
:100180004D00444501524F514E0001010101010152
:100190000101010101010101010101010101015000
:1001A0000100010139010101014C0101010152511C
:1001B00001000101012A0101010101010101014FB9
:1001C0000100010101010101C300253032583A202C
:1001D000253038620A000A722F63203031323334FE
:1001E0003536370A005B735D004B6579626F61726B
:1001F000642073746172742E0A0055534220636F39
:100200006E666967757265642E0A005B575D005BF8
:10021000535D005B525D005B445D005B435D00121B
:1002200003480048004B00420020006D006F00644E
:100230000000000E0374002E006D002E006B002ED7
:100240000000000403090409028D00050100A0322A
:10025000090400000103010100092111010001222C
:100260003F000705810308000A090401000103019A
:100270000200092111010001224D00070582030837
:10028000000A090402000103000000092111010015
:10029000012236000705830308000A09040300024F
:1002A000030000000921110100012220000705843C
:1002B00003200001070504032000010904040001D4
:1002C0000300000009211101000122390007058502
:1002D000031000011201100100000008EDFEFECA2B
:1002E00004010102000105010906A101050719E049
:1002F00029E71500250195087501810205081901F6
:100300002905950575019102950175039101050770
:100310001900297715002501957875018102C0061D
:1003200031FF0974A1010975150025FF9520750895
:1003300081020976150025FF952075089102C005F8
:10034000010980A101850216010026B7001A0100EB
:100350002AB700751095018100C0050C0901A101A3
:100360008503160100269C021A01002A9C027510C2
:1003700095018100C005010902A1010901A1000543
:1003800009190129051500250195057501810295B9
:1003900001750381010501093009311581257F951A
:1003A000027508810609381581257F950175088138
:1003B00006050C0A38021581257F9501750881060E
:1003C000C0C005010906A101050719E029E71500CC
:1003D00025019508750181029501750881010508BF
:1003E0001901290595057501910295017503910182
:1003F0000507190029FF150025FF950675088100DE
:10040000C00A002530325820006B6579626F617236
:10041000645F7265706F72743A20000A0025303292
:1004200058006B6579626F6172645F7365745F6CAD
:1004300065643A200064656C5F6B65795F6269741E
:100440003A2063616E27742064656C3A202530324F
:10045000580A006164645F6B65795F6269743A2071
:1004600063616E2774206164643A20253032580A33
:10047000004F6E6573686F743A2074696D656F75AF
:10048000740A00646F6E652E0A00626F6F676D619B
:10049000676963207363616E3A202E2E2E20002937
:1004A0000A002575002F002575005D2800256400D1
:1004B0002000256400200025640020002564007CC5
:1004C0000025303258006D6F7573656B6579205B60
:1004D00062746E7C782079207620685D2872657061
:1004E0002F61636C293A205B006D6B5F77686565EF
:1004F0006C5F74696D655F746F5F6D6178203D201E
:1005000025640A006D6B5F776865656C5F6D617867
:100510005F7370656564203D2025640A006D6B5F24
:1005200074696D655F746F5F6D6178203D2025642F
:100530000A006D6B5F6D61785F7370656564203D67
:100540002025640A006D6B5F696E74657276616C5C
:10055000203D2025640A006D6B5F64656C61792025
:100560003D2025640A006D6B5F776865656C5F747C
:10057000696D655F746F5F6D6178203D2025640A49
:10058000006D6B5F776865656C5F6D61785F737038
:10059000656564203D2025640A006D6B5F74696D9C
:1005A000655F746F5F6D6178203D2025640A006D82
:1005B0006B5F6D61785F7370656564203D202564B5
:1005C0000A006D6B5F696E74657276616C203D2008
:1005D00025640A006D6B5F64656C6179203D2025A0
:1005E000640A000A00257500363A20776865656C54
:1005F0005F74696D655F746F5F6D61783A20000AA2
:1006000000257500353A20776865656C5F6D617807
:100610005F73706565643A20000A00257500343AFE
:100620002074696D655F746F5F6D61783A20000AB0
:1006300000257500333A206D61785F7370656564DD
:100640003A20000A00257500323A20696E746572FE
:1006500076616C286D73293A20000A0025750031F7
:100660003A2064656C6179282A31306D73293A200B
:10067000000A092D2056616C756573202D0A004D06
:100680003E004D25643E20003F0073657420646584
:100690006661756C740A00433E2000776865726578
:1006A0002064656C74613A20637572736F723D25C6
:1006B000642C20776865656C3D25640A5365652068
:1006C000687474703A2F2F656E2E77696B69706548
:1006D0006469612E6F72672F77696B692F4D6F7533
:1006E00073655F6B6579730A000A092D204D6F757C
:1006F00073656B6579202D0A4553432F713A097153
:100700007569740A313A0964656C6179282A313057
:100710006D73290A323A09696E74657276616C28C4
:100720006D73290A333A096D61785F73706565648A
:100730000A343A0974696D655F746F5F6D61780A98
:10074000353A09776865656C5F6D61785F737065D0
:1007500065640A363A09776865656C5F74696D652A
:100760005F746F5F6D61780A0A703A097072696E22
:10077000742076616C7565730A643A097365742038
:1007800064656661756C74730A75703A092B310A79
:10079000646F776E3A092D310A706775703A092BCC
:1007A00031300A7067646F776E3A092D31300A0A6A
:1007B0007370656564203D2064656C7461202A2037
:1007C0006D61785F7370656564202A20287265709A
:1007D000656174202F2074696D655F746F5F6D6152
:1007E00078290A003F004D3E2000433E20004C2562
:1007F000640A000A092D20436F6E736F6C65202D0B
:100800000A4553432F713A09717569740A6D3A09A3
:100810006D6F7573656B65790A000A092D204D614E
:10082000676963202D0A643A0964656275670A780E
:100830003A096465627567206D61747269780A6B44
:100840003A096465627567206B6579626F617264ED
:100850000A6D3A096465627567206D6F7573650A84
:10086000763A0976657273696F6E0A733A09737422
:10087000617475730A633A09636F6E736F6C6520F8
:100880006D6F64650A302D343A096C617965723098
:100890002D34284631302D4634290A506175733A7B
:1008A00009626F6F746C6F616465720A653A0965FD
:1008B0006570726F6D0A6E3A094E4B524F0A000A0C
:1008C000002575002E6E6B726F3A20000A002575A8
:1008D000002E737761705F6261636B736C61736824
:1008E0005F6261636B73706163653A20000A002583
:1008F00075002E737761705F67726176655F6573EF
:10090000633A20000A002575002E6E6F5F677569D7
:100910003A20000A002575002E737761705F7261BE
:100920006C745F726775693A20000A002575002EA5
:10093000737761705F6C616C745F6C6775693A2086
:10094000000A002575002E636170736C6F636B5F26
:10095000746F5F636F6E74726F6C3A20000A0025CB
:1009600075002E737761705F636F6E74726F6C5F6A
:10097000636170736C6F636B3A20000A002530323C
:1009800058006B65796D61705F636F6E6669672E85
:100990007261773A20000A002575002E6D6F75731D
:1009A000653A20000A002575002E6B6579626F613B
:1009B00072643A20000A002575002E6D6174726918
:1009C000783A20000A002575002E656E61626C651C
:1009D0003A20000A00253032580064656275675F6E
:1009E000636F6E6669672E7261773A20000A002590
:1009F000750064656661756C745F6C617965723AE7
:100A000020003F004E4B524F3A206F66660A004E60
:100A10004B524F3A206F6E0A0074696D65725F63C6
:100A20006F756E743A202530346C580A006B657906
:100A3000626F6172645F6E6B726F3A2025580A00B4
:100A40006B6579626F6172645F69646C653A2025D9
:100A5000580A006B6579626F6172645F70726F74BF
:100A60006F636F6C3A2025580A00686F73745F6B70
:100A70006579626F6172645F6C65647328293A20DE
:100A800025580A000A092D20537461747573202DAE
:100A90000A004743433A20342E382E312041565223
:100AA0002D4C4942433A20312E382E3073766E2039
:100AB0004156525F415243483A20617672350A00EE
:100AC0004F5054494F4E533A204C55464120424FC7
:100AD0004F544D41474943204D4F5553454B455980
:100AE0002045585452414B455920434F4E534F4C8B
:100AF0004520434F4D4D414E44204E4B524F2035E3
:100B000031320A004255494C443A20356635633447
:100B100061392D6469727479202831353A33343A59
:100B20003430204E6F762032302032303135290A71
:100B3000005649443A2030784645454428742E6D85
:100B40002E6B2E29205049443A20307843414645A7
:100B50002848484B42206D6F6429205645523A2060
:100B60003078303130340A00444553433A20742EF3
:100B70006D2E6B2E206B6579626F617264206669E1
:100B8000726D7761726520666F722048484B422013
:100B90006D6F640A000A092D2056657273696F6EC5
:100BA000202D0A000A6D6F7573653A206F66660A1C
:100BB000000A6D6F7573653A206F6E0A000A6B65E7
:100BC00079626F6172643A206F66660A000A6B652B
:100BD00079626F6172643A206F6E0A000A6D617407
:100BE0007269783A206F66660A000A6D61747269EC
:100BF000783A206F6E0A000A64656275673A206F62
:100C00006E0A000A64656275673A206F66660A00BC
:100C10000A0A626F6F746C6F616465722E2E2E20EB
:100C200000433E20006565636F6E6669673A0A009F
:100C300011241FBECFEFDAE0DEBFCDBF04B603FE46
:100C400024C08091EA019091EB01A091EC01B09158
:100C5000ED018730904BA740B04BB9F41092EA01F8
:100C60001092EB011092EC011092ED0114BE84B7CA
:100C7000877F84BF88E10FB6F8948093600010925C
:100C800060000FBEE0E0FFE3099511E0A0E0B1E0F5
:100C9000EEE2F3E502C005900D92A833B107D9F753
:100CA00021E0A8E3B1E001C01D92AA3EB207E1F73E
:100CB0000E94EA0A0C9495290C940000FF93EF938C
:100CC000E0913801F0913901309709F00995EF91E1
:100CD000FF910895FC018591803011F0EFDFFBCF8B
:100CE0000895FF27E0E230E247FF0CC0419597FFEF
:100CF00009C0EDE26095709580959095611D711D1C
:100D0000811D911D27FF02C0219530E350E2AA27E3
:100D1000660F771F881F991FAA1FA41710F0A41B26
:100D200063955A95A9F7AA3008F0A95FA05DAF9323
:100D3000F395611571058105910541F7ED3211F4C7
:100D4000EF93F395F21718F43F93F395FBCF8F9140
:100D5000B5DFFA95E1F70895E991F9918591803031
:100D600021F0853219F0AADFF9CF089520E0E89448
:100D700055915532C1F3503311F4689455915A335B
:100D800048F4505390F3220F022E220F220F200D11
:100D9000250FF4CF0EF4219589919991533619F3CB
:100DA000533729F1533559F1BC0188279927E89425
:100DB0005C3621F48991999168945591543639F4AF
:100DC00046EF7EF077FF0DC08FEF9FEF0AC05537DB
:100DD0004AE039F0583540E121F0523642E009F05E
:100DE0000895FF93EF937DDFEF91FF91B7CFFF93CE
:100DF000EF93FC0181918030B9F360DFFBCFFF936B
:100E0000EF9368DFF1CFDF93CF93CDB7DEB72596B1
:100E1000A3DFCF91DF910895FC01613051F018F00C
:100E2000623069F012C08281882379F08DEE90E003
:100E300008958281882349F088EE90E008958281A8
:100E4000882331F083EE90E0089580E090E00895EB
:100E500080EE90E00895E72FF0E098E0899FE00DA4
:100E6000F11D112483E0EE0FFF1F8A95E1F7E60FD5
:100E7000F11DE65FFE4F84910895E82FF0E0EE0F3C
:100E8000FF1FEE57F0408591949108958FEF84B93C
:100E900080E485B9819A8098889A2E9A8998E2E4AC
:100EA000F1E0119281E0EA34F807D9F7EAE3F1E0E2
:100EB000119281E0E234F807D9F782E491E090934F
:100EC0004D0180934C018AE391E090934B01809314
:100ED0004A0108950F931F93CF93DF9380914A01A6
:100EE00090914B0120914C0130914D0130934B0179
:100EF00020934A0190934D0180934C01C0E0D0E0D3
:100F000001E010E080E090E045B1407C4C2B9C017A
:100F100053E0220F331F5A95E1F7422B45B9EAE11E
:100F2000EA95F1F700C0E0914A01F0914B01EC0F16
:100F3000FD1F208130E0082E02C0359527950A94C8
:100F4000E2F720FD899AF5E3FA95F1F70000A6B5DE
:100F50002E982AE12A95F1F700C020914C0130919A
:100F60004D01789B0EC0A801082E01C0440F0A94C1
:100F7000EAF74095F901EC0FFD1F5081542350838F
:100F80000CC0F901EC0FFD1F6081A801082E01C003
:100F9000440F0A94EAF7642B608346B56A2F70E029
:100FA0004A1718F046B550E004C046B550E041502D
:100FB0005F4F461B570B4630510558F0E0914A01F0
:100FC000F0914B01EC0FFD1F4081F901EC0FFD1F6B
:100FD0004083EAE1EA95F1F700C089982E9AEBE2A6
:100FE000F1E03197F1F700C00000019688309105DB
:100FF00009F08ACFA0914C01B0914D01AC0FBD1FFB
:10100000E0914A01F0914B01EC0FFD1F9C91808112
:10101000981751F00E94E21D60934E0170934F01AA
:1010200080935001909351012196C830D10509F069
:1010300069CF8091E101853021F08091E10181113A
:1010400011C060914E0170914F01809150019091BB
:1010500051010E94171E613177428105910510F000
:101060000E94671D81E0DF91CF911F910F9108953C
:10107000E0914C01F0914D01E80FF11D8081089540
:101080000F931F93CF93DF9386ED91E00E946A0642
:10109000C0E0D0E00AEC11E0E0914C01F0914D018C
:1010A000EC0FFD1F80810E94551D1F928F93DF93CF
:1010B000CF931F930F930E94030721960F900F90D9
:1010C0000F900F900F900F90C830D10529F7DF9146
:1010D000CF911F910F91089508950895569A81FF19
:1010E00002C05E9A08955E98089580916501089502
:1010F0009FB7F894109254019FBF9091E1019430F2
:1011000009F058C09091E9009F702091EC0020FFF9
:1011100002C020E801C020E0292B94E09093E90070
:101120009091EB0090FF43C09091EE0097FF3FC07D
:1011300090915201992321F09091E80095FF37C0DA
:101140001092520196E03091E80035FD15C03091C3
:10115000E101343061F53091EB0035FD28C091504C
:1011600021F481E08093520122C0EFE9FFE0319742
:10117000F1F700C00000E7CF8093F1008091E80014
:1011800085FD0AC08091E80080FFFCCF8091E800D7
:101190008E778093E80006C08FB7F89491E0909323
:1011A00054018FBF2F702093E90080E008952F70C5
:1011B0002093E9008FEF0895CF93DF9300D01F9223
:1011C000CDB7DEB72091E101243019F523E0298362
:1011D0009B838A832093E9008FEF9091E8008150F0
:1011E00095FD06C095ED9A95F1F700008111F5CFB8
:1011F0008091E80085FF0DC040E050E063E070E0C2
:10120000CE0101960E94AC0B8091E8008E7780930E
:10121000E8000F900F900F90DF91CF910895CF933A
:10122000DF9300D01F92CDB7DEB72091E1012430CB
:1012300021F522E029839B838A8383E08093E90060
:101240008FEF9091E800815095FD06C095ED9A953D
:10125000F1F700008111F5CF8091E80085FF0DC006
:1012600040E050E063E070E0CE0101960E94AC0BDC
:101270008091E8008E778093E8000F900F900F9098
:10128000DF91CF9108952091E1012430F1F422E023
:101290002093E9002FEF3091E800215035FD06C082
:1012A00035ED3A95F1F700002111F5CF2091E800D6
:1012B00025FF0BC040E050E065E070E00E94AC0B01
:1012C0008091E8008E778093E8000895CF93DF93B4
:1012D000EC018091E101843009F047C080910A015E
:1012E0008823E1F080910B018823C1F085E0809391
:1012F000E9008FEF9091E800815095FD06C095E1DF
:101300009A95F1F700008111F5CF8091E80085FFF3
:101310002CC040E050E060E170E017C081E08093B5
:10132000E9008FEF9091E800815095FD06C095EDA2
:101330009A95F1F700008111F5CF8091E80085FFC3
:1013400014C040E050E068E070E0CE010E94AC0BB9
:101350008091E8008E778093E80080E1FE01A5E5AA
:10136000B1E001900D928A95E1F7DF91CF91089558
:101370008BE192E00E946A068091E001811109C030
:101380000E94400D0E949D0D8091E2008460809338
:10139000E200089587E192E00E946A061092E0015F
:1013A000089583E192E00C946A068FE092E00C9439
:1013B0006A068BE092E00E946A060C94A21D80915E
:1013C00053018F5F8093530162E30E942A29911198
:1013D00035C01092530180915401882379F1809196
:1013E000E101843049F58091E9008F709091EC0023
:1013F00090FF02C090E801C090E0982B84E08093B9
:10140000E9008091EB0080FF14C08091EE0087FF1F
:1014100010C08091E80085FF03C01092F100F9CF61
:101420008091E80080FF05C08091E8008E7780936E
:10143000E8009F709093E90010925401089542E0F3
:1014400061EC81E00E94BA0C42E061EC82E00E9413
:10145000BA0C42E061EC83E00E94BA0C42E261EC1B
:1014600084E00E94BA0C42E161EC85E00C94BA0C75
:101470008091E301833009F455C030F4813071F07C
:10148000823009F48EC008958A3009F47AC08B3016
:1014900009F460C0893009F09CC020C08091E2014D
:1014A000813A09F096C08091E800877F8093E80038
:1014B0008091E6019091E701892B21F060E080E0C6
:1014C00090E003C060E185E591E070E00E94F70BD9
:1014D0008091E8008B778093E80008958091E20185
:1014E000813209F076C08091E6019091E701009782
:1014F00019F0049709F06DC08091E800877F809310
:10150000E8008091E80082FD05C08091E101811131
:10151000F8CF5FC08091F100809365018091E80071
:101520008B7753C08091E201813A09F052C08091DB
:10153000E6019091E701892B09F04BC08091E8000A
:10154000877F8093E8008091E80080FFFCCF809146
:101550000A0136C08091E2018132D9F58091E6011D
:101560009091E701892BA9F58091E800877F80930E
:10157000E8000E94EF0C8091E40180930A010C9432
:101580006F158091E201813221F58091E800877F1B
:101590008093E8000E94EF0C8091E5018093660142
:1015A00008958091E201813AA1F48091E800877F5B
:1015B0008093E8008091E80080FFFCCF8091660175
:1015C0008093F1008091E8008E778093E8000C947E
:1015D000EF0C089584B7877F84BF88E10FB6F89435
:1015E00080936000109260000FBE90E080E80FB61C
:1015F000F89480936100909361000FBE0E94811067
:101600000E94400D0E949D0D8091E20084608093B5
:10161000E20088E798E00E94501D78948091E101F3
:10162000843019F00E94D60FF9CF8AEF91E00E9422
:101630006A060E94831080E091E00E94F30F89EE19
:1016400091E00E946A068091E101853089F485EE7F
:1016500091E00E946A060E94671D8091DF01882345
:1016600091F30E948D1D882371F30E94960BEBCF9E
:101670000E94B1100E94D60FE6CF292F33272330C6
:101680003105A9F06CF42130310509F442C0223053
:10169000310509F043C08DE890E027E432E042C014
:1016A00021323105C9F02232310519F137C09927AD
:1016B0008130910541F08230910541F0892B71F51F
:1016C000E3E4F2E005C0E3E3F2E002C0EFE1F2E0C0
:1016D000849190E09F0126C0653000F5E62FF0E090
:1016E000EE0FFF1FED5DFE4F2081318189E090E01C
:1016F00019C0653098F4E62FF0E0DF01AA0FBB1F98
:10170000A75EBE4F2D913C91EC5EFE4F808190E034
:1017100009C082E190E024ED32E004C080E090E076
:1017200020E030E0FA0131832083089580E189BD13
:1017300082E189BD09B400FEFDCF8091D8008F7D84
:101740008093D8008091E00082608093E0008091D7
:10175000E00081FDFCCF0895CF92DF92EF92FF92DF
:101760000F931F93CF93DF937C018B01EA010E94BB
:10177000100D811133C0209731F088819981081BA9
:10178000190BE80EF91EC12CD12C0115110529F1F8
:101790008091E80085FD16C08091E8008E778093E7
:1017A000E8000E94D60F209741F0888199818C0D26
:1017B0009D1D9983888385E011C00E94100D8823A8
:1017C00021F30CC0F70181917F018093F10001505A
:1017D0001109FFEFCF1ADF0AD8CF80E0DF91CF9158
:1017E0001F910F91FF90EF90DF90CF90089520917F
:1017F000E8013091E9012617370748F061157105B6
:1018000039F42091E8002E772093E80001C0B90157
:10181000FC0120E061157105B9F18091E101882397
:1018200009F440C0853009F43FC08091E80083FD91
:101830003DC08091E80082FF06C08091E80082FFF1
:1018400026C080E008958091E80080FFE3CF2091DA
:10185000F3008091F20090E0922B6115710551F038
:101860008830910538F421912093F100615071097D
:101870000196F3CF21E0089709F020E08091E8007D
:101880008E778093E800C6CF2111C7CFD6CF809145
:10189000E101882339F0853039F08091E80083FF39
:1018A000CCCF04C082E0089583E0089581E00895DC
:1018B0002091E8013091E9012617370748F06115BA
:1018C000710539F42091E8002E772093E80001C0DB
:1018D000B901FC0120E061157105C1F18091E101C0
:1018E000882309F441C0853009F440C08091E800A4
:1018F00083FD3EC08091E80082FF06C08091E80031
:1019000082FF27C080E008958091E80080FFE3CF48
:101910002091F3008091F20090E0922B6115710507
:1019200059F08830910540F424912093F1003196CC
:10193000615071090196F2CF21E0089709F020E08B
:101940008091E8008E778093E800C5CF2111C6CF43
:10195000D5CF8091E101882339F0853039F080912D
:10196000E80083FFCBCF04C082E0089583E00895B0
:1019700081E00895982F973058F59093E9009817D3
:1019800039F07091EC002091ED005091F00003C00F
:10199000242F762F50E021FF19C03091EB003E7FBD
:1019A0003093EB003091ED003D7F3093ED003091AE
:1019B000EB0031603093EB007093EC002093ED006E
:1019C0005093F0002091EE0027FF07C09F5FD3CF18
:1019D0008F708093E90081E0089580E00895809100
:1019E000E20187FD05C08091E80080FF0EC012C0B3
:1019F0008091E80082FD05C08091E1018111F8CF5E
:101A000008958091E8008B7708C08091E1018111F1
:101A1000EACF08958091E8008E778093E8000895DA
:101A20008091E4009091E50045E62091EC0020FFD4
:101A300021C02091E80020FD21C02091E101222356
:101A400089F0253089F02091EB0025FD0FC0209111
:101A5000E4003091E5002817390739F3415041F08F
:101A6000C901E3CF82E0089583E0089581E00895FD
:101A700084E008952091E80022FFDFCF80E0089500
:101A80000E94AE0D0E94B60DE0EEF0E08081816014
:101A90008083E8EDF0E080818F77808319BCA7ED2B
:101AA000B0E08C918E7F8C9380818F7E80831092AA
:101AB000E00108950F931F93CF93DF930E94AE0D23
:101AC0000E94B60DC8EDD0E088818F778883888129
:101AD0008068888388818F7D888319BC1092E1019A
:101AE0001092DD011092DF011092DE0100EE10E095
:101AF000F80180818B7F808388818160888342E0C8
:101B000060E080E00E94BA0CE1EEF0E080818E7F20
:101B10008083E2EEF0E08081816080838081886054
:101B20008083F80180818E7F8083888180618883B3
:101B3000DF91CF911F910F910895E8EDF0E0808142
:101B40008F7E8083E7EDF0E080818160808384E098
:101B500082BF81E08093E0010C945A0DE8EDF0E043
:101B600080818E7F80831092E20008951092DA00C7
:101B70001092E10008951F920F920FB60F92112458
:101B80002F933F934F935F936F937F938F939F9385
:101B9000AF93BF93EF93FF938091E10082FF0BC05F
:101BA0008091E20082FF07C08091E1008B7F8093EB
:101BB000E1000E94DF098091DA0080FF1FC0809160
:101BC000D80080FF1BC08091DA008E7F8093DA00FE
:101BD0008091D90080FF0DC080E189BD82E189BD7F
:101BE00009B400FEFDCF81E08093E1010E94B809B5
:101BF00005C019BC1092E1010E94CA098091E10060
:101C000080FF19C08091E20080FF15C08091E20042
:101C10008E7F8093E2008091E20080618093E200F9
:101C20008091D80080628093D80019BC85E08093B1
:101C3000E1010E94D5098091E10084FF30C08091CC
:101C4000E20084FF2CC080E189BD82E189BD09B436
:101C500000FEFDCF8091D8008F7D8093D8008091C9
:101C6000E1008F7E8093E1008091E2008F7E80937F
:101C7000E2008091E20081608093E2008091DD01CA
:101C8000882311F084E007C08091E30087FF02C041
:101C900083E001C081E08093E1010E94D909809135
:101CA000E10083FF24C08091E20083FF20C0809187
:101CB000E100877F8093E10082E08093E101109250
:101CC000DD018091E1008E7F8093E1008091E20050
:101CD0008E7F8093E2008091E20080618093E20039
:101CE00042E060E080E00E94BA0C0E94D109FF91BE
:101CF000EF91BF91AF919F918F917F916F915F9184
:101D00004F913F912F910F900FBE0F901F901895FC
:101D10001F93CF93DF93CDB7DEB7AA970FB6F89492
:101D2000DEBF0FBECDBFE2EEF1E08091F100819306
:101D300021E0EA3EF207C9F70E94380A8091E800E4
:101D400083FF1CC12091E2013091E301832F90E0D9
:101D50008A30910508F012C1FC01EA5AFF4F0C9439
:101D60004A29203881F0223809F008C18091E60123
:101D70008F708093E9008091EB0085FB882780F9C4
:101D80001092E90006C08091DE019091DF0191116F
:101D900082609091E800977F9093E8008093F10033
:101DA0001092F100C5C0822F8D7F09F0E7C0222379
:101DB00019F0223061F0E2C08091E401813009F035
:101DC000DDC0333009F080E08093DF0128C08091CE
:101DD000E401811124C02091E6012F7009F4CEC0E6
:101DE0002093E9008091EB0080FF19C08091EB0007
:101DF000333011F4806211C080618093EB0081E088
:101E000090E0022E01C0880F0A94EAF78093EA005E
:101E10001092EA008091EB0088608093EB001092B2
:101E2000E9008091E800877F86C02111A7C010914A
:101E3000E4011F778091E3008078812B8093E30099
:101E40008091E800877F8093E8000E94EF0C8091EA
:101E5000E80080FFFCCF8091E30080688093E3007E
:101E6000112311F083E001C082E08093E10186C07C
:101E70002058223008F082C08091E4019091E50161
:101E80008C3D23E0920779F583E08A838AE2898397
:101E90004FB7F894DE01139620E03EE051E2E32FC5
:101EA000F0E050935700E49120FF03C0E295EF70FB
:101EB0003F5FEF708E2F90E0EA3010F0C79601C0C0
:101EC000C0968D939D932F5F243149F74FBF80912A
:101ED000E800877F8093E8006AE270E0CE01019617
:101EE0000E94F70B14C0AE014F5F5F4F6091E60197
:101EF0000E943D0B009709F441C02091E800277F24
:101F00002093E800BC0189819A810E94580C80913D
:101F1000E8008B778093E80031C0203879F5809114
:101F2000E800877F8093E8008091DD018093F100D5
:101F30008091E8008E778093E8000E94EF0C1EC02D
:101F400021111CC09091E4019230C0F48091E8000E
:101F5000877F8093E8009093DD010E94EF0C8091D1
:101F6000DD01811104C08091E30087FF02C084E09D
:101F700001C081E08093E1010E941F0A8091E80086
:101F800083FF0AC08091E800877F8093E8008091FA
:101F9000EB0080628093EB00AA960FB6F894DEBF48
:101FA0000FBECDBFDF91CF911F910895CF93809148
:101FB000E1018823B1F08091E9008F709091EC00ED
:101FC00090FF02C090E801C090E0C92FC82B10928A
:101FD000E9008091E80083FD0E94880ECF70C093D5
:101FE000E900CF91089590936C0180936B0108955F
:101FF000E0916B01F0916C01309721F00190F0813C
:10200000E02D099480E00895FF920F931F93CF93E2
:10201000DF938C01E0916B01F0916C01309799F1A5
:102020000280F381E02D09958091CB0182FF2BC0C6
:1020300080FF04C089E094E00E946A06E80180E124
:10204000F82E03E014E08091CB0180FF0BC0888163
:102050001F928F931F930F930E9403070F900F906F
:102060000F900F90FA942196F110EDCF8091CB0153
:1020700080FF09C081E094E0DF91CF911F910F9123
:10208000FF900C946A06DF91CF911F910F91FF9002
:102090000895E0916B01F0916C01309721F004807C
:1020A000F581E02D099408952091690130916A012C
:1020B0008217930771F090936A0180936901E09110
:1020C0006B01F0916C01309721F00680F781E02DD3
:1020D0000994089520916701309168018217930750
:1020E00071F09093680180936701E0916B01F0912A
:1020F0006C01309721F00084F185E02D099408955A
:1021000008950C9480100E94CD1D0E9446070C94E7
:10211000CB1ECF93C82F8091CB0182FF1EC080FFC2
:1021200004C082E294E00E946A068091CB0180FFA5
:102130000CC01F92CF932DE134E03F932F930E9468
:1021400003070F900F900F900F908091CB0180FFAD
:1021500004C08BE194E00E946A068C2FCF910C940E
:102160006E08CF92DF92EF92FF920F931F93CF935F
:10217000DF93CDB7DEB72B970FB6F894DEBF0FBE57
:10218000CDBF0E946A073EE6E32E31E0F32E00E069
:1021900010E0C02E802F0E943808F701D1907F01F7
:1021A000D826B1F40F5F1F4F0830110591F78FEF5C
:1021B00089838A831B820E94D61D8160782F9D832C
:1021C0008C8349815A816B818D810E94541141C059
:1021D0009091CB0191FF04C08B870E9440088B85B2
:1021E00020E030E04D2D50E0922FBA01022E02C0C7
:1021F000759567950A94E2F760FF25C02E83CF821C
:10220000EE24E394F12C02C0EE0CFF1C9A95E2F749
:1022100090E08E219F2121E0892B09F420E028877E
:102220000E94D61D8160782F9A8789874E815F81B1
:1022300068858A850E945411F801E259FE4F808119
:102240008E25808306C02F5F3F4F2830310561F611
:10225000A9CF0E94392210916D010E94F80F181722
:10226000A1F00E94F80F80936D012B960FB6F894A1
:10227000DEBF0FBECDBFDF91CF911F910F91FF90B9
:10228000EF90DF90CF900C9489102B960FB6F894B6
:10229000DEBF0FBECDBFDF91CF911F910F91FF9099
:1022A000EF90DF90CF900895CF93DF93CDB7DEB757
:1022B0002B970FB6F894DEBF0FBECDBF4F83588764
:1022C00069877A878B87DE01119686E0FD0111927E
:1022D0008A95E9F785E0FE01379601900D928A957F
:1022E000E1F749815A816B817C818D819E810E94B9
:1022F0003B182B960FB6F894DEBF0FBECDBFDF9113
:10230000CF910895CF93C82F882309F498C08CEFFC
:102310008C0F813A48F48C2F0E94B62681118FC011
:102320008C2F0E94D81A0CC080E28C0F883058F491
:10233000C77081E001C0880FCA95EAF70E947B1B35
:10234000CF910C94BE1B8BE58C0F833078F4C53A8B
:1023500029F0C63A31F482E890E005C081E890E0C7
:1023600002C083E890E0CF910C94541088E58C0F64
:10237000833108F064C0C83A39F1C93A41F1CA3A28
:1023800049F1CB3A51F1CC3A59F1CD3A61F1C03B28
:1023900069F1CE3A71F1CF3A79F1C13B81F1C23B9B
:1023A00089F1C33B91F1C43B99F1C53BA1F1C63B17
:1023B000A9F1C73BB1F1C83BB9F1C93BC1F1CA3B77
:1023C000C9F58AE292E038C082EE90E035C089EE2D
:1023D00090E032C08AEE90E02FC085EB90E02CC0F8
:1023E00086EB90E029C087EB90E026C08CEC90E073
:1023F00023C08DEC90E020C083E891E01DC08AE806
:1024000091E01AC082E991E017C084E991E014C01C
:1024100081E292E011C083E292E00EC084E292E099
:102420000BC085E292E008C086E292E005C087E238
:1024300092E002C080E090E0CF910C946A10CF91BE
:102440000895882329F19CEF980F913A18F40E947F
:10245000291B0DC090E2980F983058F4877091E0D6
:1024600001C0990F8A95EAF7892F0E94811B0C946D
:10247000BE1B9BE5980F933020F480E090E00C9415
:102480005410885A833120F480E090E00C946A1054
:102490000895882321F00E947B1B0C94BE1B089595
:1024A000882321F00E94811B0C94BE1B0895CF92BB
:1024B000DF92EF92FF920F931F93CF93DF93CDB7ED
:1024C000DEB728970FB6F894DEBF0FBECDBF8C01E4
:1024D00085E0F801DE01119601900D928A95E1F7F1
:1024E000F80140813181F280258122952F7083810E
:1024F0009481892B31F03F3F31F481E04F3F19F453
:1025000003C081E001C080E080FDC8C249833A83F6
:1025100089819A812F830E94961A9E8388870E94C0
:10252000951A0E9468194E81E42FE295EF70F0E051
:10253000E05AFF4F2F8168850C944A29842F807FB1
:10254000142F1F70882311F01295107FFF2059F06F
:10255000112309F458C2812F68870E948B1B0E94A7
:10256000BE1B688550C2862F0E942112112309F4D8
:1025700095C2812F0E94911B28960FB6F894DEBF5A
:102580000FBECDBFDF91CF911F910F91FF90EF90C4
:10259000DF90CF900C94BE1B342F307F842F8F7030
:1025A000303211F08295807F662319F0613009F195
:1025B0002AC0FF20A1F0222381F1213071F5289655
:1025C0000FB6F894DEBF0FBECDBFDF91CF911F9144
:1025D0000F91FF90EF90DF90CF900C949B1B2223E4
:1025E00019F0213009F45AC28E830E94A41B8E81F7
:1025F0008EC1FF2021F0263008F050C20EC02530D9
:1026000008F04CC284C1FF20C1F0222331F0F80150
:10261000958190FFF8C19F70958328960FB6F89426
:10262000DEBF0FBECDBFDF91CF911F910F91FF9005
:10263000EF90DF90CF900C944912222309F467C1E8
:10264000F6C1242F26952695237030E021153105FB
:1026500021F021303105C9F021C2FF2021F0862F61
:10266000942F937002C080E090E028960FB6F89403
:10267000DEBF0FBECDBFDF91CF911F910F91FF90B5
:10268000EF90DF90CF900C945410FF2021F0862F14
:10269000942F937002C080E090E028960FB6F894D3
:1026A000DEBF0FBECDBFDF91CF911F910F91FF9085
:1026B000EF90DF90CF900C946A10862FFF2019F0D6
:1026C0000E94BF2002C00E94272128960FB6F894CE
:1026D000DEBF0FBECDBFDF91CF911F910F91FF9055
:1026E000EF90DF90CF900C94AC21842F837009F091
:1026F00076C0F110D3C1262F229526952770220F80
:10270000220F862F8F70C82ED12CE12CF12C022E97
:1027100004C0CC0CDD1CEE1CFF1C0A94D2F764FF35
:1027200010C06FE070E080E090E004C0660F771F9B
:10273000881F991F2A95D2F760957095809590957E
:1027400003C060E070E0CB01242F2695269523700E
:10275000422F50E042305105D1F04330510559F13C
:102760006C297D298E299F294130510541F12896F8
:102770000FB6F894DEBF0FBECDBFDF91CF911F9192
:102780000F91FF90EF90DF90CF900C948D196C29F2
:102790007D298E299F2928960FB6F894DEBF0FBE9B
:1027A000CDBFDF91CF911F910F91FF90EF90DF9000
:1027B000CF900C94A7190E948D19C701B6012896D5
:1027C0000FB6F894DEBF0FBECDBFDF91CF911F9142
:1027D0000F91FF90EF90DF90CF900C947319FF2032
:1027E00019F0842F817001C08695882309F456C1A1
:1027F000262F229526952770220F220F862F8F7065
:10280000C82ED12CE12CF12C022E04C0CC0CDD1CE6
:10281000EE1CFF1C0A94D2F764FF10C06FE070E05A
:1028200080E090E004C0660F771F881F991F2A95EB
:10283000D2F7609570958095909503C060E070E048
:10284000CB01242F269526952370422F50E042304D
:102850005105D1F04330510559F16C297D298E295C
:102860009F294130510541F128960FB6F894DEBFFB
:102870000FBECDBFDF91CF911F910F91FF90EF90D1
:10288000DF90CF900C94611A6C297D298E299F29A5
:1028900028960FB6F894DEBF0FBECDBFDF91CF9163
:1028A0001F910F91FF90EF90DF90CF900C947B1AC7
:1028B0000E94611AC701B60128960FB6F894DEBFD0
:1028C0000FBECDBFDF91CF911F910F91FF90EF9081
:1028D000DF90CF900C94471A603F49F118F4603EA6
:1028E00048F48CC0623F09F451C0E0F1633F09F441
:1028F00061C084C0162F1F70842F8F71FF2021F0BC
:102900000E94E019812F89CE0E94011A812F2896FA
:102910000FB6F894DEBF0FBECDBFDF91CF911F91F0
:102920000F91FF90EF90DF90CF900C945012FF200A
:10293000A9F0253008F0B2C0842F8F7128960FB609
:10294000F894DEBF0FBECDBFDF91CF911F910F91E5
:10295000FF90EF90DF90CF900C94261A263008F06D
:102960009DC0EACFFF20A1F0842F8F7128960FB66B
:10297000F894DEBF0FBECDBFDF91CF911F910F91B5
:10298000FF90EF90DF90CF900C94E019FF2061F35F
:10299000842F8F7128960FB6F894DEBF0FBECDBF7F
:1029A000DF91CF911F910F91FF90EF90DF90CF902B
:1029B0000C94011AFF2091F0842F8F7128960FB686
:1029C000F894DEBF0FBECDBFDF91CF911F910F9165
:1029D000FF90EF90DF90CF900C94CB1928960FB614
:1029E000F894DEBF0FBECDBFDF91CF911F910F9145
:1029F000FF90EF90DF90CF900C94C119FF20A1F0D1
:102A0000222309F4B1CF862F28960FB6F894DEBFA3
:102A10000FBECDBFDF91CF911F910F91FF90EF902F
:102A2000DF90CF900C948211222309F4B1CF862F2E
:102A300028960FB6F894DEBF0FBECDBFDF91CF91C1
:102A40001F910F91FF90EF90DF90CF900C94211287
:102A50004F70C8010E940C0728960FB6F894DEBF8D
:102A60000FBECDBFDF91CF911F910F91FF90EF90DF
:102A7000DF90CF900C94E8184F70C80128960FB6DD
:102A8000F894DEBF0FBECDBFDF91CF911F910F91A4
:102A9000FF90EF90DF90CF900C944F1D28960FB6CB
:102AA000F894DEBF0FBECDBFDF91CF911F910F9184
:102AB000FF90EF90DF90CF9008950E94981B0E94A6
:102AC0006D1B0E94BE1B0E94DA220E94AC2180E096
:102AD00090E00E94541080E090E00C946A100E94F4
:102AE000881B0C945D150E94961A292F22952F7031
:102AF00030E02C3031054CF42A3031056CF4225092
:102B000031092230310590F407C02C30310551F0E5
:102B10002F30310539F00AC0803E10F0803F31F48B
:102B200081E0089593FB882780F9089580E0089557
:102B3000CF93DF9300D000D01F92CDB7DEB70F90B8
:102B40000F900F900F900F90DF91CF910895CF933A
:102B5000DF9300D000D000D0CDB7DEB726960FB6F9
:102B6000F894DEBF0FBECDBFDF91CF9108951F93C4
:102B7000CF93DF93C091760116E080917701C8175B
:102B800099F0D0E01C9FF0011D9FF00D1124E85832
:102B9000FE4F4081518162817381848195810E94C1
:102BA000A7152196C770E9CFDF91CF911F910895A6
:102BB0004091A8015091A9016091AA017091AB01C7
:102BC0008091AC019091AD010C94A715CF938091A9
:102BD000AD0182958F7009F05FC08091AA018823B2
:102BE00009F45AC020917601A09177016091A80163
:102BF0007091A9018091AB019091AC0131E06F3FE0
:102C000009F030E0B32FC6E02A1709F445C0009759
:102C100021F07F3F21F44B2F03C041E001C040E091
:102C200030E040FD35C0C29FF001C39FF00D11247C
:102C3000E858FE4F418174132BC04081641328C0B3
:102C40004281411125C0438154814817590710F42E
:102C500041505109481B590B4C325140C8F48091E6
:102C6000AD018F7080618093AD0186E0829FF0019D
:102C7000839FF00D1124E358FE4F80818F70806197
:102C8000808388EA91E00E945712CF910C94B71587
:102C90002F5F3F4F2770B8CFCF910895CF92DF922B
:102CA000EF92FF920F931F93CF93DF93CDB7DEB7D1
:102CB00062970FB6F894DEBF0FBECDBF8C0185E0E2
:102CC000F801DE011D9601900D928A95E1F7D80179
:102CD0004C9111965C91119712966C9112971396E4
:102CE000ED90FC9014977091A801E091A9012091BA
:102CF000AB013091AC012115310531F0EF3F31F4DA
:102D000081E07F3F19F403C081E001C080E0B82F6B
:102D1000B170CB2E80FD6DC1D090AA01DD2009F4E9
:102D2000F6C0F091AD01E216F30638F0C701821B40
:102D3000930B8C32914048F09CC0209530952E0D1D
:102D40003F1D2C32314008F094C08F2F807F09F056
:102D500053C0E51315C0741313C0D62E611110C0F3
:102D6000FF70F061F093AD010E94D81588EA91E000
:102D70000E9457128091AD01D80115968C936BC1BA
:102D8000EF2831F05F3F31F481E04F3F19F403C089
:102D900081E001C080E080FD03C081E0862701C0A2
:102DA00080E0B82FB170FB2E80FF1CC080917601AF
:102DB0002091770136E0821709F428C190E0389F0E
:102DC000F001399FF00D1124E858FE4F718157131F
:102DD00006C07081471303C07281671303C0019658
:102DE0008770E9CFD62E662309F435C18091AD01F5
:102DF00081608093AD0153C0E51308C0741306C011
:102E0000611104C0D8011596FC93AEC04D875E8752
:102E10008D859E856A8B0E9473156A89882329F1A6
:102E2000D62E662311F12091AD01822F82958F70ED
:102E300090E002970CF460C08091A8019091A901E4
:102E400098878F831986FB86EA862C87CE010796A2
:102E500051C0E51731F14D875E878D859E856A8B60
:102E60000E9473156A8981112EC0C8010E945712F1
:102E7000A4C08F2F807F69F77E2DF98AE88A89891F
:102E80000E94981588EA91E00E945712E8EAF1E062
:102E900086E0DF011D928A95E9F70E94D815D12CB2
:102EA000DAC07413D8CF6111D6CFD8011596FC9330
:102EB000C8010E945712E8EAF1E086E0DF011D92A6
:102EC0008A95E9F7C8C0D62E662379F22091AD0124
:102ED000822F82958F7090E0029774F08091A80104
:102EE0009091A9019A8389831B82FD82EC822E83B3
:102EF000CE0101960E94571286E0F801A8EAB1E0DF
:102F000001900D928A95E1F70E94E6156FC0E216D6
:102F1000F30640F0C701821B930B9C012C32314019
:102F200048F057C0209530952E0D3F1D2C32314072
:102F300008F04FC0D62E662309F497CFE51329C0B9
:102F4000741327C08091AD0180FD1AC0982F92950F
:102F50009F70B1F0F80185839F3031F09F5F9295AB
:102F6000907F8F70892B8583C8010E94571286E05D
:102F7000F801A8EAB1E001900D928A95E1F736C018
:102F800086E0F801A8EAB1E001900D928A95E1F798
:102F900062C04D875E878D859E850E94731588234C
:102FA00079F086E0F801A8EAB1E001900D928A95E7
:102FB000E1F70E94E6150E94D815DD24D3944BC09A
:102FC0008091AD0181608093AD01C8010E945712CC
:102FD00042C07E2DF98AE88A89890E949815E8EA1C
:102FE000F1E086E0DF011D928A95E9F70E94D8158D
:102FF00032C0662309F439CF4D875E878D859E8563
:103000000E947315882309F430CFCBCF4D875E879C
:103010008D859E850E94961A292F22952F7030E06B
:10302000223031052CF49F7041F0811106C00CC094
:10303000243031052CF49F7049F4805E883020F0F4
:10304000C8010E945712CF2CDC2C05C0F8019581D5
:10305000907F99F7F9CF8D2D62960FB6F894DEBF69
:103060000FBECDBFDF91CF911F910F91FF90EF90D9
:10307000DF90CF9008951F93CF93DF93CDB7DEB746
:103080002C970FB6F894DEBF0FBECDBF4F83588785
:1030900069877A878B879C87CE0107960E944E1698
:1030A0008823C1F02F8138858A859B85892B31F053
:1030B0003F3F11F080E003C02F3FE1F781E0811135
:1030C00047C04F81588569857A858B859C850E948C
:1030D000A7153EC086E0FE013796DE0111960190ED
:1030E0000D928A95E1F7FF81E8854A855B85411558
:1030F000510531F0EF3F31F481E0FF3F19F403C097
:1031000081E001C080E080FD23C02091770130E0A4
:10311000C9010196877099276091760170E0861742
:103120009707F1F1F983EA835D834C8396E0929FE0
:10313000D001939FB00D1124A858BE4FFE013196C7
:1031400001900D929A95E1F7809377010E94B7154F
:1031500016E08091760190917701891779F1189F97
:10316000C001112488589E4F0E944E16882331F1C9
:10317000E09176011E9FF0011124E858FE4F408136
:10318000518162817381848195810E94A71580910C
:10319000760190E001968770992780937601D9CFC8
:1031A0000E946F151092770110927601E8EAF1E023
:1031B00086E0DF011D928A95E9F7CACF2C960FB6FB
:1031C000F894DEBF0FBECDBFDF91CF911F91089560
:1031D000EF92FF920F931F93CF93DF93FC01009721
:1031E00009F46FC0F12CEE24E394EF012196849151
:1031F000843740F4843008F055C0813081F082304B
:1032000021F15FC0853709F447C0C0F19CE7980FF2
:10321000903708F056C08F770E94211245C08F0169
:103220000E5F1F4FFE01849190E2980F983050F48A
:103230008770FE2D01C0FF0F8A95EAF78F2F0E943D
:103240008B1B15C00E94821114C08F010E5F1F4F8F
:10325000FE01849190E2980F983068F48770FE2DFB
:1032600001C0FF0F8A95EAF78F2F0E94911B0E94E1
:10327000BE1BE80119C00E942112FBCFCF010296AC
:10328000FE01C491CC2361F0EFE9FFE03197F1F743
:1032900000C00000C150F6CFCF010296FE01F490AD
:1032A000EC0102C00E9482118F2D882341F0EFE9CA
:1032B000FFE03197F1F700C000008150F6CFFE012A
:1032C00094CFDF91CF911F910F91FF90EF900895D0
:1032D00008956093B2017093B3018093B401909309
:1032E000B5010C945D150F931F930091B2011091DD
:1032F000B3012091B4013091B501062B172B282B77
:10330000392B0093B2011093B3012093B401309391
:10331000B5011F910F910C945D150F931F930091B0
:10332000B2011091B3012091B4013091B50106238F
:103330001723282339230093B2011093B30120935C
:10334000B4013093B5011F910F910C945D150F934B
:103350001F930091B2011091B3012091B4013091FB
:10336000B50106271727282739270093B2011093A4
:10337000B3012093B4013093B5011F910F910C94C8
:103380005D151092AE011092AF011092B001109233
:10339000B1010C945D1541E050E060E070E004C0C4
:1033A000440F551F661F771F8A95D2F74093AE01D1
:1033B0005093AF016093B0017093B1010C945D150F
:1033C00041E050E060E070E004C0440F551F661F0C
:1033D000771F8A95D2F78091AE019091AF01A091AD
:1033E000B001B091B101842B952BA62BB72B809304
:1033F000AE019093AF01A093B001B093B1010C94D2
:103400005D1541E050E060E070E004C0440F551FDE
:10341000661F771F8A95D2F74095509560957095F5
:103420008091AE019091AF01A091B001B091B10136
:1034300084239523A623B7238093AE019093AF01F5
:10344000A093B001B093B1010C945D1541E050E040
:1034500060E070E004C0440F551F661F771F8A9517
:10346000D2F78091AE019091AF01A091B001B091DF
:10347000B10184279527A627B7278093AE019093A3
:10348000AF01A093B001B093B1010C945D150F93FF
:103490001F930091AE011091AF012091B0013091C6
:1034A000B101062B172B282B392B0093AE0110935B
:1034B000AF012093B0013093B1011F910F910C9493
:1034C0005D150F931F930091AE011091AF012091F4
:1034D000B0013091B101062317232823392300932B
:1034E000AE011093AF012093B0013093B1011F9151
:1034F0000F910C945D150F931F930091AE011091E5
:10350000AF012091B0013091B1010627172728277C
:1035100039270093AE011093AF012093B00130938F
:10352000B1011F910F910C945D150895CF92DF9218
:10353000EF92FF920F931F93CF93DF93EC01C09014
:10354000B201D090B301E090B401F090B501809148
:10355000AE019091AF01A091B001B091B101C82A24
:10356000D92AEA2AFB2A0FE110E0B701A601002EB2
:1035700004C076956795579547950A94D2F740FF12
:1035800007C0BE01802F0E94DC1C8130910539F4F8
:103590000150110950F7BE0180E00E94DC1CDF9150
:1035A000CF911F910F91FF90EF90DF90CF900895F2
:1035B00090910A01992361F190910B01992341F1B6
:1035C000982F9695969596959F3088F4E0910C01EA
:1035D000F0910D01E90FF11D877021E030E001C08D
:1035E000220F8A95EAF78181822B81830895909139
:1035F000CB0190FF2DC01F928F9383E594E09F93A2
:103600008F930E9403070F900F900F900F900895D3
:1036100040910C0150910D0120E030E09FEFFA0144
:10362000E20FF31F6281681799F09F3F19F461114F
:1036300001C0922F2F5F3F4F2E30310581F79F3F02
:1036400039F0FA01E90FF11D97FDFA95828308958B
:10365000089590910A01992369F190910B019923A2
:1036600049F1982F9695969596959F3090F4E09114
:103670000C01F0910D01E90FF11D877021E030E0A0
:1036800001C0220F8A95EAF72095818128232183A2
:1036900008959091CB0190FF1FC01F928F9385E3F7
:1036A00094E09F938F930E9403070F900F900F90C9
:1036B0000F90089540910C0150910D0120E030E0F1
:1036C000FA01E20FF31F9281981301C012822F5F5B
:1036D0003F4F2E303105A1F7089581E090E0E09151
:1036E0000C01F0910D01E80FF91F10820196803155
:1036F0009105A9F708959091CA01982B9093CA015A
:10370000089580959091CA0198239093CA010895D5
:103710001092CA0108959091C901982B9093C90104
:10372000089580959091C90198239093C9010895B7
:103730001092C90108958093B8010E94D61D9093FC
:10374000B7018093B60108951092B8011092B701A5
:103750001092B601089540910C0150910D0120E0A6
:1037600030E080E0FA01E20FF31F918191118F5F49
:103770002F5F3F4F2F303105A9F70895E0910C01DD
:10378000F0910D018091CA018083E0910C01F091CC
:103790000D0180819091C901892B80838091B801AE
:1037A000882309F43EC00E94D61D2091B6013091B5
:1037B000B7018217930760F00E94D61D2091B601D1
:1037C0003091B701821B930B8C32914070F41BC077
:1037D0000E94D61D2091B6013091B70120953095F9
:1037E000280F391F2C32314070F08091CB0180FFBF
:1037F00008C081E794E09F938F930E9403070F9086
:103800000F900E94A41BE0910C01F0910D018081AA
:103810009091B801892B80830E94AB1B81110E947B
:10382000A41B80910C0190910D010C940410CF9376
:10383000DF938D3B60F4883A90F5853A38F5843013
:1038400010F5813009F06DC0C1E0D0E0B1C0883E14
:1038500098F4803EC0F48F3B09F063C00E946F155E
:103860002FEF80E792E0215080409040E1F700C0C8
:1038700000000E94681E9CC0803F08F452C0C82F00
:10388000D0E0D06595C0C82FD0E092C0853A09F449
:103890004BC0863A09F04BC0C2E8D0E489C0883AF0
:1038A00009F448C0893A09F448C08A3A09F448C082
:1038B0008B3A09F448C08C3A09F448C08B3B09F4B0
:1038C00048C08C3B09F448C08D3A09F448C0803B9D
:1038D00009F448C08E3A09F448C08F3A09F448C048
:1038E000813B09F448C0823B09F448C0833B09F49A
:1038F00048C0843B09F448C0853B09F448C0863B76
:1039000009F448C0873B09F448C0883B09F448C023
:10391000893B09F448C08A3B09F048C0CAE2D6E4B2
:1039200047C0C0E0D0E044C0C1E8D0E441C0C3E833
:10393000D0E43EC0C2EED4E43BC0C9EED4E438C00B
:10394000CAEED4E435C0C5EBD4E432C0C6EBD4E44F
:103950002FC0C3EBD4E42CC0C4EBD4E429C0C7EB24
:10396000D4E426C0CCECD4E423C0CDECD4E420C015
:10397000C3E8D5E41DC0CAE8D5E41AC0C2E9D5E45D
:1039800017C0C4E9D5E414C0C1E2D6E411C0C3E253
:10399000D6E40EC0C4E2D6E40BC0C5E2D6E408C04B
:1039A000C6E2D6E405C0C7E2D6E402C0C0E0D4E473
:1039B000CE01DF91CF9108950E942B07803EA8F49D
:1039C000803C00F5813309F45CC038F4893209F495
:1039D00052C08A3209F45BC05FC08933B1F08238CB
:1039E000A1F0853309F441C057C0833E41F128F46A
:1039F000803E99F0823EB9F04FC0863E31F1873E5D
:103A000071F14AC00E943D0708959091DC0190FD3C
:103A100002C091FF41C080EE3FC08091DC0180FF79
:103A2000FACF89E339C08091DC0182FF0CC080911C
:103A3000DC0184FF02C080E02FC083EE2DC08091A6
:103A4000DC0182FFF4CF82EE27C08091DC0183FF8E
:103A50000AC08091DC0184FDEECF87EE1DC080910D
:103A6000DC0183FFF6CF86EE17C08091DC0185FF75
:103A700006C089E211C08091DC0185FFFACF85E3A1
:103A80000BC08091DC0186FF06C08AE205C08091F0
:103A9000DC0186FFFACF81E30E94171C0895089588
:103AA000909339018093380108958295982F9C7CDA
:103AB00096959695837344E0849F90011124922BF0
:103AC000892F8A7A86959575990F892B089580910B
:103AD000E101843009F11092CC0120E488E190E00A
:103AE0000FB6F894A895809360000FBE20936000F5
:103AF00083B7817F846083BF83B7816083BF7894FD
:103B0000889583B78E7F83BF88E10FB6F894809342
:103B10006000109260000FBE0895CF930E946C0861
:103B20000E946A070E946D08C0E08C2F0E9438082E
:103B3000811105C0CF5FC830C1F780E001C081E0CE
:103B4000CF9108950C946F151F920F920FB60F929C
:103B500011248F939F93AF93BF938091CC018111D8
:103B600013C08091CD019091CE01A091CF01B09171
:103B7000D0014196A11DB11D8093CD019093CE013E
:103B8000A093CF01B093D001BF91AF919F918F913E
:103B90000F900FBE0F901F90189582E084BD93E0A8
:103BA00095BD9AEF97BD80936E0008952FB7F89456
:103BB0008091CD019091CE01A091CF01B091D00123
:103BC0002FBF08952FB7F8946091CD017091CE0169
:103BD0008091CF019091D0012FBF0895CF92DF92B5
:103BE000EF92FF920F931F932FB7F8944091CD015E
:103BF0005091CE016091CF017091D0012FBF6A0129
:103C00007B01EE24FF248C0120E030E0C016D106B9
:103C1000E206F30610F441505109481B590BCA0142
:103C20001F910F91FF90EF90DF90CF900895CF926A
:103C3000DF92EF92FF920F931F934FB7F89400918A
:103C4000CD011091CE012091CF013091D0014FBF15
:103C500068017901C61AD70AE80AF90A0617170790
:103C60002807390718F0C701B60106C0C701B60119
:103C700061507109810991091F910F91FF90EF9097
:103C8000DF90CF9008951F920F920FB60F921124DC
:103C90008F939F93AF93BF938091CD019091CE016D
:103CA000A091CF01B091D0010196A11DB11D8093CB
:103CB000CD019093CE01A093CF01B093D001BF91DD
:103CC000AF919F918F910F900FBE0F901F901895FD
:103CD0000E94400DF8942FEF87EA91E62150804032
:103CE0009040E1F700C0000087E090EBDC0180939A
:103CF000EA019093EB01A093EC01B093ED012CE06D
:103D000088E190E00FB6F894A895809360000FBE0C
:103D100020936000FFCFEF92FF920F931F93CF93FA
:103D2000DF93E82EF12C8F2D0E943808C0E0D0E000
:103D3000082F10E098010C2E02C0359527950A94A3
:103D4000E2F720FD05C02196C830D10599F709C0DA
:103D50006C2F7F2D80E00E942B07E812F4CF81E0CA
:103D600005C0F39488E0F812DECF80E0DF91CF91B8
:103D70001F910F91FF90EF900895CF93C82F8CE281
:103D80000E948B1E882321F08C2FCF910C948B1EC8
:103D900080E0CF910895CF930E941820811102C036
:103DA0000E94FE1F8AE894E00E946A06C5E6C150A0
:103DB00049F00E946A078FE39CE90197F1F700C080
:103DC0000000F5CF83E894E00E946A0689E20E9431
:103DD000BD1E811111C18AE20E94BD1E81110E9487
:103DE000FE1F85E00E94BD1E81110E94681E0E9478
:103DF00023208093CB0187E00E94BD1E882399F188
:103E00008BE10E94BD1E882351F09091CB0191FB64
:103E1000882780F921E0822780FB91F922C08EE07B
:103E20000E94BD1E882351F09091CB0192FB882700
:103E300080F921E0822780FB92F913C080E10E9483
:103E4000BD1E9091CB01882341F093FB882780F918
:103E500021E0822780FB93F904C0892F809580FBA5
:103E600090F99093CB018091CB010E9427200E9472
:103E700035208093DC0180EE0E94BD1E882341F036
:103E80008091DC01982F909590FB80F98093DC0164
:103E900089E30E94BD1E882359F09091DC0191FBBB
:103EA000882780F921E0822780FB91F99093DC013B
:103EB00082EE0E94BD1E882359F09091DC0192FB96
:103EC000882780F921E0822780FB92F99093DC011A
:103ED00086EE0E94BD1E882359F09091DC0193FB71
:103EE000882780F921E0822780FB93F99093DC01F9
:103EF00083EE0E94BD1E882359F09091DC0194FB53
:103F0000882780F921E0822780FB94F99093DC01D7
:103F100085E30E94BD1E882359F09091DC0195FB3A
:103F2000882780F921E0822780FB95F99093DC01B6
:103F300081E30E94BD1E882359F09091DC0196FB1D
:103F4000882780F921E0822780FB96F99093DC0195
:103F500081E10E94BD1E882359F09091DC0197FBFE
:103F6000882780F921E0822780FB97F99093DC0174
:103F70008091DC010E9439208091DC0187FB882739
:103F800080F980930B0187E20E94BD1EC82F8EE14D
:103F90000E94BD1E8111C2608FE10E94BD1E811171
:103FA000C46080E20E94BD1E8111C86081E20E944F
:103FB000BD1E8111C06182E20E94BD1E8111C062DE
:103FC00083E20E94BD1E8111C06484E20E94BD1E76
:103FD000882311F0C06802C0CC2329F08C2F0E94E6
:103FE00030206C2F03C00E942C20682F70E080E0EE
:103FF00090E0CF910C946919CF9108956DEE7EEF0A
:1040000080E090E00E94802960E082E090E00E94E1
:10401000722960E083E090E00E94722960E084E011
:1040200090E00E94722960E085E090E00C94722993
:1040300080E090E00E946C2921E08D3E9E4F09F0C7
:1040400020E0822F089582E090E00C946429682F8C
:1040500082E090E00C94722983E090E00C94642953
:10406000682F83E090E00C94722984E090E00C9437
:104070006429682F84E090E00C9472298091D30128
:1040800080FF0BC06091110185E0689FB001112491
:1040900075956795759567952AC081FF09C06091F0
:1040A000110185E0689FB0011124759567951FC0C7
:1040B00082FF07C06091110185E0689FB001112463
:1040C00016C04091D4014423C9F0609110014617F5
:1040D00088F72091110185E0289F90011124429FCB
:1040E000C001439F900D112470E00E943629603872
:1040F000710540F46115710539F002C065E070E0AA
:10410000862F08958FE7089581E008958091D30167
:1041100080FF08C060910F0170E0759567957595F7
:10412000679521C081FF06C060910F0170E0759511
:10413000679519C082FF04C060910F0170E010C044
:104140008091D4018823C1F060910E018617A0F7F9
:1041500090910F01989FC001112470E00E943629B0
:104160006038710528F46115710521F0862F0895D6
:104170008FE7089581E0089561E070E0F4CF803F1B
:1041800021F40E943E20819504C0813F29F40E94C1
:104190003E208093D7010895823F21F40E943E2063
:1041A000819504C0833F29F40E943E208093D6016C
:1041B0000895893F19F40E94862005C08A3F31F492
:1041C0000E94862081958093D80108958B3F21F429
:1041D0000E948620819504C08C3F29F40E9486208D
:1041E0008093D9010895843F21F48091D5018160A5
:1041F00017C0853F21F48091D501826011C0863FB0
:1042000021F48091D50184600BC0873F21F4809117
:10421000D501886005C0883F31F48091D501806167
:104220008093D50108958D3F21F48091D301816061
:104230000BC08E3F21F48091D301826005C08F3F77
:1042400029F48091D30184608093D3010895803F45
:1042500039F48091D70187FF6CC01092D70169C0F3
:10426000813F29F48091D7011816BCF362C0909168
:10427000D601823F29F497FF5CC01092D60159C045
:10428000833F19F41916CCF354C0893F41F480914F
:10429000D80118160CF04DC01092D8014AC08A3FC0
:1042A00029F48091D80187FF44C0F6CF8B3F39F4C1
:1042B0008091D90187FF3DC01092D9013AC08C3F4F
:1042C00029F48091D9011816BCF333C0843F21F43E
:1042D0008091D5018E7F17C0853F21F48091D50153
:1042E0008D7F11C0863F21F48091D5018B7F0BC05B
:1042F000873F21F48091D501877F05C0883F31F445
:104300008091D5018F7E8093D50113C08D3F21F41C
:104310008091D3018E7F0BC08E3F21F48091D30119
:104320008D7F05C08F3F29F48091D3018B7F8093CF
:10433000D3018091D60181110EC08091D7018111E6
:104340000AC08091D801811106C08091D9018111E4
:1043500002C01092D40108958091CB0183FF7EC0EA
:1043600086EC94E00E946A068091D5011F928F939B
:1043700081EC94E09F938F930E9403078FEB94E06E
:104380000E946A062091D601822F992787FD909579
:104390009F932F938CEB94E09F938F930E9403073E
:1043A0008AEB94E00E946A062091D701822F992718
:1043B00087FD90959F932F9387EB94E09F938F9326
:1043C0000E94030785EB94E00E946A062091D801C1
:1043D000822F992787FD90959F932F9382EB94E0EE
:1043E0009F938F930E94030780EB94E00E946A06DC
:1043F0002091D901822F992787FD90959F932F9324
:104400008DEA94E09F938F930E9403078AEA94E0D9
:104410000E946A068091D4011F928F9387EA94E0EC
:104420009F938F930E94030785EA94E00E946A0697
:104430008091D3011F928F9382EA94E09F938F9390
:104440000E9403078FE994E00E946A068DB79EB729
:104450004C960FB6F8949EBF0FBE8DBF85ED91E0D0
:104460000E9449100E94D61D9093D2018093D101E1
:1044700008951F93CF93DF938091D1019091D20142
:104480000E94EE1D4091D401442321F0209112019D
:1044900030E006C0209113015AE0259F90011124BD
:1044A0008217930708F482C08091D6011091D7013A
:1044B000D091D801C091D901811107C0111105C057
:1044C000D11103C0CC2309F471C04F3F19F04F5FE5
:1044D0004093D401181624F40E943E208093D60104
:1044E0008091D60187FF05C00E943E208195809370
:1044F000D601111624F40E943E208093D7018091AA
:10450000D70187FF05C00E943E2081958093D70187
:104510006091D601662339F11091D701112319F169
:10452000772767FD7095872F972F0E943B2823E3FD
:1045300033E343E35FE30E949F280E9408286093CF
:10454000D601612F772767FD7095872F972F0E94DF
:104550003B2823E333E343E35FE30E949F280E9469
:1045600008286093D7011D1624F40E9486208093AA
:10457000D8018091D80187FF05C00E9486208195CF
:104580008093D8011C1624F40E9486208093D901C0
:104590008091D90187FF05C00E9486208195809374
:1045A000D901DF91CF911F910C94AC21DF91CF9174
:1045B0001F910895E5EDF1E085E0DF011D928A95F8
:1045C000E9F71092D4011092D301089589EE96E094
:1045D0000E946A061F9281E08F931F9285E08F935D
:1045E0008BE996E09F938F930E9403070F900F90A3
:1045F0000F900F900F900F9008958330E9F128F4F9
:10460000813061F0823009F10895853009F462C08B
:1046100008F449C0863009F474C00895209113014C
:10462000862F90E0820F911D8F3F910520F4620F3D
:104630006093130103C08FEF8093130180911301E6
:104640001F928F9384ED95E072C020911201862F06
:1046500090E0820F911D8F3F910520F4620F6093CF
:10466000120103C08FEF80931201809112011F92FB
:104670008F9382EC95E05BC020911101862F90E032
:10468000820F911D8F3F910520F4620F60931101FD
:1046900003C08FEF80931101809111011F928F93BE
:1046A0008FEA95E044C020911001862F90E0820FA0
:1046B000911D8F3F910520F4620F6093100103C09C
:1046C0008FEF80931001809110011F928F938AE9E0
:1046D00095E02DC020910F01862F90E0820F911D53
:1046E0008F3F910520F4620F60930F0103C08FEF9D
:1046F00080930F0180910F011F928F9381E895E0C5
:1047000016C020910E01862F90E0820F911D8F3FE1
:10471000910520F4620F60930E0103C08FEF809328
:104720000E0180910E011F928F9386E695E09F9374
:104730008F930E9403070F900F900F900F90089592
:10474000833081F128F4813059F08230D1F008951E
:10475000853009F449C0B8F1863009F456C008958F
:1047600080911301681720F4861B8093130102C007
:1047700010921301809113011F928F9387E595E0AA
:1047800054C080911201681720F4861B8093120197
:1047900002C010921201809112011F928F9385E442
:1047A00095E043C080911101681720F4861B809327
:1047B000110102C010921101809111011F928F937B
:1047C00082E395E032C080911001681720F4861BC7
:1047D0008093100102C010921001809110011F926D
:1047E0008F938DE195E021C080910F01681720F42F
:1047F000861B80930F0102C010920F0180910F0160
:104800001F928F9384E095E010C080910E0168178D
:1048100020F4861B80930E0102C010920E0180913D
:104820000E011F928F9389EE94E09F938F930E94C5
:1048300003070F900F900F900F900895CF93C82FFC
:104840001F928F932EEE37E03F932F930E94030722
:1048500061E070E080E090E004C0660F771F881F81
:10486000991FCA95D2F70E9469190F900F900F9067
:104870000F90CF910C946F15CF938B3109F4CBC16E
:1048800008F049C08E3009F4D9C100F5873009F429
:10489000A9C1A8F4863009F05DC28091CB01817F67
:1048A0008E7F8093CB0183EF97E00E946A0681E2BE
:1048B0009CE00E946A0681E08093DB0191C1883010
:1048C00009F45BC08B3009F487C144C2813109F41B
:1048D00029C220F4803109F4C4C13CC2863109F4F4
:1048E000DAC1893109F036C285E99BE00E946A0687
:1048F00088E69BE00E946A0681E39BE00E946A06CC
:1049000084E09BE00E946A0680EC9AE00E946A06BE
:1049100082E99AE063C1853309F416C268F48732EC
:1049200009F412C228F48E3108F414C28D510FC25A
:10493000893209F409C20EC2833438F48A3308F08C
:1049400005C2883309F448C105C2833409F4FCC1A7
:10495000883409F0FFC10E946F1580E19CE00E943D
:104960006A069FEF23ED80E3915020408040E1F7FD
:1049700000C000000E94681E33C185E29CE00E94D6
:104980006A0682EF99E00E946A060E942C201F921C
:104990008F938FEE99E09F938F930E9403078DEE84
:1049A00099E00E946A060E942320C82F8AED99E0B0
:1049B0000E946A061F92CF9325ED39E03F932F9313
:1049C0000E94030783ED99E00E946A0689EC99E052
:1049D0000E946A068C2F81701F928F9326EC39E01B
:1049E0003F932F930E94030784EC99E00E946A068C
:1049F0008AEB99E00E946A06C1FB882780F91F9222
:104A00008F9327EB39E03F932F930E94030785EBA9
:104A100099E00E946A0689EA99E00E946A06C2FB50
:104A2000882780F91F928F9326EA39E03F932F93CE
:104A30000E94030784EA99E00E946A068BE999E0E4
:104A40000E946A06C3FBCC27C0F91F92CF9388E966
:104A500099E09F938F930E94030786E999E00E9453
:104A60006A060E943520C82F82E899E00E946A06F3
:104A70001F92CF932DE739E03F932F930E940307B6
:104A80008BE799E00E946A0682E699E00E946A0636
:104A90008C2F81701F928F932FE539E03F932F93D6
:104AA0000E9403078DB79EB780960FB6F8949EBFFD
:104AB0000FBE8DBF8DE599E00E946A0686E499E0FD
:104AC0000E946A06C1FB882780F91F928F9323E416
:104AD00039E03F932F930E94030781E499E00E94FD
:104AE0006A068FE299E00E946A06C2FB882780F975
:104AF0001F928F932CE239E03F932F930E9403077C
:104B00008AE299E00E946A0688E199E00E946A06BA
:104B1000C3FB882780F91F928F9325E139E03F93EB
:104B20002F930E94030783E199E00E946A0689E0BF
:104B300099E00E946A06C4FB882780F91F928F9330
:104B400026E039E03F932F930E94030784E099E029
:104B50000E946A0682EF98E00E946A06C5FB8827D9
:104B600080F91F928F932FEE38E03F932F930E948E
:104B700003078DEE98E00E946A0681ED98E00E949E
:104B80006A06C6FB882780F91F928F932EEC38E0C7
:104B90003F932F930E9403078CEC98E00E946A06D3
:104BA00084EC98E00E946A06C7FBCC27C0F91F92EC
:104BB000CF9381EC98E09F938F930E9403078FEB34
:104BC00098E00E946A068DB79EB74C960FB6F8948F
:104BD0009EBF0FBE8DBF04C08AE198E00E946A06A6
:104BE000C1E0BDC08091CB01C82FC17080FF09C05A
:104BF00083E09CE00E946A068091CB01817F8E7FDA
:104C000044C087EF9BE00E946A068091CB018160DF
:104C10008093CB01E5CF8091CB0181FBCC27C0F9FC
:104C200091E0C927C0FB81F98093CB01CC2319F017
:104C30008AEE9BE025C08CED9BE0D0CF8091CB012C
:104C400082FBCC27C0F991E0C927C0FB82F9809391
:104C5000CB01CC2319F08DEC9BE012C08DEB9BE0D7
:104C6000BDCF8091CB0183FBCC27C0F991E0C92750
:104C7000C0FB83F98093CB01CC2351F081EB9BE007
:104C80000E946A068091CB0181608093CB0167C04E
:104C900084EA9BE0A3CF84E89AE00E946A060E941F
:104CA000F80F1F928F938AE69AE09F938F930E944A
:104CB000030780910A011F928F9383E59AE09F93E7
:104CC0008F930E940307809166011F928F9380E467
:104CD0009AE09F938F930E94030780910B011F928C
:104CE0008F938DE29AE09F938F930E9403078091A8
:104CF000CD019091CE01A091CF01B091D001BF9391
:104D0000AF939F938F9389E19AE09F938F930E9433
:104D100003078DB79EB746960FB6F8949EBF0FBE99
:104D20008DBF5ECF0E946F15C0910B0181E0C82737
:104D3000C0930B01CC2329F08FE09AE00E946A0611
:104D40000EC084E09AE04ACF80E001C089530E94FF
:104D50001E2446CF82E09AE00E946A06C0E08C2FB3
:104D6000CF91089580E0089580E00895CF93C82FF3
:104D70008091DB01813071F020F0823009F448C06D
:104D80003FC1A0910C01B0910D018C91823209F0CC
:104D900039C107C0A0910C01B0910D018C918232F4
:104DA00049F48C2F0E94B22681112FC08C2F0E94B3
:104DB0003C242CC08C2F0E94B426811126C0C43103
:104DC000E1F070F4CB3081F0C031D1F40E94E622E2
:104DD00086EE97E00E946A0682E08093DB0115C0B0
:104DE000C93259F0C83361F483EF97E00E946A0634
:104DF0008AEE97E00E946A0608C01092DB0104C1A7
:104E000084EE97E00E946A06FFC081E08170FEC0D8
:104E1000C43228F5CE3108F0C1C0CB30A1F1D0F4B6
:104E2000C73009F0D3C08EE18093130182E38093F1
:104E300012018AE08093110184E18093100188E0DF
:104E400080930F0188E280930E018AE896E00E9429
:104E50006A06BFC0C33149F1C431C1F0B7C0CB3419
:104E600009F4A9C028F4C93289F0C83361F0AEC092
:104E7000C13509F49EC0C23509F499C0CE3409F099
:104E8000A5C06AE09EC00E94E622A3C08091DA011C
:104E9000882319F01092DA019CC087E996E00E94FD
:104EA0006A0681E08093DB01B1C081E796E00E9451
:104EB0006A068FE596E00E946A06809113011F92B0
:104EC0008F938CE596E09F938F930E9403078AE56A
:104ED00096E00E946A0688E496E00E946A06809145
:104EE00012011F928F9385E496E09F938F930E9407
:104EF000030783E496E00E946A0684E396E00E943A
:104F00006A06809111011F928F9381E396E09F932F
:104F10008F930E9403078FE296E00E946A068EE15B
:104F200096E00E946A06809110011F928F938BE198
:104F300096E09F938F930E94030789E196E00E9479
:104F40006A0684E096E00E946A0680910F011F9233
:104F50008F9381E096E09F938F930E9403078FEFDA
:104F600095E00E946A0688EE95E00E946A068091AC
:104F70000E011F928F9385EE95E09F938F930E9471
:104F8000030783EE95E00E946A068DB79EB74896A8
:104F90000FB6F8949EBF0FBE8DBF1BC0CE51EC2F35
:104FA000F0E0E35DFE4F80818093DA0112C061E0A2
:104FB00003C061E006C06AE08091DA010E94FD2230
:104FC00008C08091DA010E94A02303C088E896E01F
:104FD00013C08091DA01882369F01F928F9382E8D1
:104FE00096E09F938F930E9403070F900F900F906E
:104FF0000F9004C08FE796E00E946A0681E006C029
:105000001092DB0180E002C080E000CFCF910895D4
:1050100004D06894B1118DC0089570D088F09F5766
:1050200090F0B92F9927B751A0F0D1F0660F771FF4
:10503000881F991F1AF0BA95C9F712C0B13081F0D4
:1050400077D0B1E0089574C0672F782F8827B85FB4
:1050500039F0B93FCCF3869577956795B395D9F735
:105060003EF490958095709561957F4F8F4F9F4F3F
:105070000895E89409C097FB3EF49095809570954B
:1050800061957F4F8F4F9F4F9923A9F0F92F96E994
:10509000BB279395F695879577956795B795F11109
:1050A000F8CFFAF4BB0F11F460FF1BC06F5F7F4FA6
:1050B0008F4F9F4F16C0882311F096E911C07723B8
:1050C00021F09EE8872F762F05C0662371F096E8C1
:1050D000862F70E060E02AF09A95660F771F881F90
:1050E000DAF7880F9695879597F9089557FD9058A8
:1050F000440F551F59F05F3F71F04795880F97FB9C
:10510000991F61F09F3F79F0879508951216130655
:105110001406551FF2CF4695F1DF08C01616170684
:105120001806991FF1CF86957105610508940895B9
:10513000E894BB2766277727CB0197F908950BD012
:1051400078C069D028F06ED018F0952309F05AC0C5
:105150005FC01124EECFCADFA0F3959FD1F3950F66
:1051600050E0551F629FF001729FBB27F00DB11DEB
:10517000639FAA27F00DB11DAA1F649F6627B00D7B
:10518000A11D661F829F2227B00DA11D621F739F64
:10519000B00DA11D621F839FA00D611D221F749F72
:1051A0003327A00D611D231F849F600D211D822FB9
:1051B000762F6A2F11249F5750408AF0E1F0882300
:1051C0004AF0EE0FFF1FBB1F661F771F881F91500D
:1051D0005040A9F79E3F510570F014C0AACF5F3F21
:1051E000ECF3983EDCF3869577956795B795F79540
:1051F000E7959F5FC1F7FE2B880F911D96958795C8
:1052000097F9089597F99F6780E870E060E0089546
:105210009FEF80EC089500240A94161617061806CE
:105220000906089500240A941216130614060506AA
:105230000895092E0394000C11F4882352F0BB0F3B
:1052400040F4BF2B11F460FF04C06F5F7F4F8F4F9E
:105250009F4F0895991B79E004C0991F961708F095
:10526000961B881F7A95C9F78095089597FB072E9E
:1052700016F4009407D077FD09D00E94502907FC4E
:1052800005D03EF4909581959F4F08957095619556
:105290007F4F0895EE0FFF1F0590F491E02D0994C4
:1052A000AA1BBB1B51E107C0AA1FBB1FA617B7074C
:1052B00010F0A61BB70B881F991F5A95A9F7809568
:1052C0009095BC01CD010895F999FECF92BD81BDA5
:1052D000F89A992780B50895A8E1B0E042E050E03F
:1052E0000C948729262FF999FECF1FBA92BD81BD54
:1052F00020BD0FB6F894FA9AF99A0FBE0196089558
:105300000E947229272F0C947329DC01CB01FC0128
:10531000F999FECF06C0F2BDE1BDF89A319600B40E
:0E5320000D9241505040B8F70895F894FFCF19
:10532E007508660943090F09DC080101B90128084F
:10533E00140A321E3F4D362039C20375033F031F38
:10534E0003E602590272028B02A402C40201020396
:08535E00040506070809000020
:00000001FF
